:020000040048B2
:1000000002EB8202825C03E0607905EB8002D27829
:10001000704B6F4C585C8218521C62540022704B1B
:100020005A54F0BD70B50446C0B200EBC000564A49
:100030000021604D02449378567800E05B1CD8B2F2
:10004000B04203D2285C0028F8D001215B48025D51
:1000500002B101228A4208D001552046FFF7ABFFCA
:1000600020460021BDE8704035E070BD30B54649FE
:10007000024602EBC203574D0120CC5C584BAC54F6
:10008000995C00291FBF491E9954C9B2002918BFA5
:10009000002030BDF0B50021494A1154504C215484
:1000A00000254E4E454B355400EBC002195C364FCF
:1000B0003A4431B19279444C02EB8202A118C978DA
:1000C00004E05179414B03EB81029178404B414A66
:1000D00019541554F0BD70B50446434A105D18B369
:1000E000364E04EBC405305D274B5A1930B1927976
:1000F000354B02EB8202985C28B970BD5279334BC4
:1001000013F8220080B101292D4D01D1295570BD70
:100110002046334E00F009F8305518B101212F4A1E
:10012000115570BD0120285570BD10B500F022F8A2
:1001300018B100F019F8407810BD00F010F84878B8
:1001400010BD10B500F016F818B100F00DF8807869
:1001500003E000F004F88B78581EC0B210BD487957
:100160001A4A02EB800170478979174C01EB810133
:1001700060187047114B00EBC002185C0249114433
:100180007047000044E3002020DA4A0084AC4900B4
:10019000B0930020BCC14A0084AC49004CF44A0032
:1001A000F4DF4A0058260020A8930020A0C24A008D
:1001B00080D94A0094940020A8C14A0018850020E4
:1001C0009090002048850020F8DA4A0018DA4A00AA
:1001D000308500206085002038B54B0080860020E7
:1001E0006886002098C14A00A8940020A3F79EB812
:1001F0000121DFF8A42322F81010A3F795B82DE908
:10020000F84F06461A204643DFF890B34FF6FF79C1
:10021000DFF88CA30BEB0604678835E01E213AF863
:100220001080DFF8800301FB08F14518AA7CFF2A43
:100230001CBFA888484506D00092AA880123002147
:10024000404600F0A3FBAB7BE87B1B1ADBB263B13B
:10025000297D687D091AC9B239B1EA7BAB7B0146B9
:1002600040469B1ADBB200F082F9288948451EBF40
:10027000A97CFF29484506D000912A890123012144
:10028000404600F083FB7F1C2188B8B28842C5D36A
:100290000BF10E00805DFF2803D00021C24A42F816
:1002A0002010BDE8F18F38B50446C04D07E0401E70
:1002B0006060216851F8200055F820209047606860
:1002C0000028F4D131BD2DE9FE4F1A24B34B44432D
:1002D000DFF8DCB21E26B34F88461C440094B4F805
:1002E0000A904FF6FF740290019224E000F066F845
:1002F00008F0B4FFAB880146A34212D0687C80B9F5
:10030000AC4AD1540DE000F059F808F0B3FFA988C9
:10031000A14206D06A7C012A03D1AB88A64921F804
:100320001300BAF80200A04203D0019A029908F023
:10033000D2FF09F101090098018989453CD29F4A01
:10034000D8F8040002EBC90A9AF807108842F0D3E3
:10035000484600F0BCF9484600F028FAD8F80010EA
:10036000BAF800200029DCD0104672433A44D27A11
:10037000002ABBD0022AC6D0042A0ED0082AD0D127
:1003800070433844027D437D807ED21AD2B201444C
:100390000BEB0300E0F70FFDC3E700F00FF808F0E8
:1003A00075FFA988A142BCD06A7C022AB9D1AB886A
:1003B000834941F82300B4E7BDE8F78F06FB00F25C
:1003C000BD18AA7E114470472DE9F54F02461A2048
:1003D00042430D46714981B0DFF8E881DFF8E891CA
:1003E00088180090467D0FE0A07918B1294658463C
:1003F00000F090FAA0884FF6FF71884203D0029A6D
:10040000019908F068FF761C0098017D8E4239D270
:100410005FFA86FB0C2313FB0BF36C4A6868D41855
:10042000A17A8842EFD3584600F05EF9A0790028FF
:10043000E0D0B4F802A007E0BA7E114408F00EFF45
:10044000397F08F801001AE020888245CCD229685B
:100450000AF1940080B291B11E23524A4343D71847
:100460003A7FFF2A0BD0FA7E002AE5D0012A06D176
:10047000BB7E194408F0FEFE397F29F811000AF10D
:10048000010AE1E7BDE8F78F2DE9F04F87B00021C1
:10049000019105465FFA85F94D4A691C02EB890313
:1004A000C9B200930291A846FFF7A0FE494810F890
:1004B0001540FF2C51D04849DFF8DCA00591474E8C
:1004C000DFF8E4B0069543E04846FFF791FE684642
:1004D000FFF7E9FEFFF78AFE39E0E5B21A2111FBCA
:1004E00005F12E484718B97BFF291EBF059A505DBC
:1004F000002825D05BF8210010B3401E0022049094
:100500000392787C38B9F888B988091AC9B211B150
:10051000334A10440390BB7B00216A4628464BF8BF
:10052000231003A9FFF7CFFE6A4603A92846FFF769
:100530004BFFB87DFF2803D0315C01F0FD01315441
:100540003AF819000028BFD0401E2AF81900641C90
:1005500006983B30C0B28442BFD35FFA88F0FFF701
:1005600047FE6846FFF79FFE07B0BDE8F08F70B505
:100570000C461E21484315460A4A1044C67A082EE6
:1005800008D11A46174B0A4859192044BDE8704053
:10059000E0F711BC70BD000040E3002088AC4A00C9
:1005A000DCA04A00D43D4A007885002078A74A00A4
:1005B000D48900203C8A0020248A002024B34A00E9
:1005C000388A0020D48F0020D08F0020C4B24A0087
:1005D0007489002038B54B00988900207889002064
:1005E00098860020EC3C4A000121464A22F810106F
:1005F000A2F79ABE2DE9F14F82B043480299DFF885
:100600000491DFF808A1DFF808B1DFF80881424D56
:1006100000EB410202A80478567872B6C04618E092
:100620002046FFF7E1FF72B6C04611E05AF82000FD
:100630007F1C80470099F8B20A799042F6D372B6CF
:10064000C04639F814000028EAD0401E29F81400EA
:10065000761C02981E30C0B286421CD2F1B26A5C8F
:10066000D307EED538F811000028EAD0401E28F84C
:10067000110080B20028E4D13BF831000323421E70
:10068000204628F811206B540BEBC10100914F79E3
:10069000FFF7AAFFCEE72046BDE8FE4FA4E71A21E8
:1006A0001E4A48431B4BF0B51D4C194D10441A4AC5
:1006B000017E08E0665C491C05EBC6077F8823F8CD
:1006C000167001279755C67DB142F3DBF0BD154981
:1006D00001EBC0004079FF2805D00D490D4B31F8E2
:1006E000302023F8102070470C210F4A4843104453
:1006F000007AFF2805D0064A064B32F8301023F85E
:100700001010704740E3002038B54B00C83B4A004A
:10071000ECBC4A00908F00207889002088AC4A0009
:10072000DCBD4A0024B34A00C4B24A00A2F7FEBDB1
:1007300001214E4A22F81010A2F7F6BD1E224C4BA2
:10074000504330B54FF6FF751844C488AC4212D000
:10075000427C3AB1022A09D03EBF464A02EB440528
:100760000D6008E0444B1C440C6004E0C288434C1C
:1007700004EB82030B60C27D807D801AC0B210B191
:100780003F4B1A440A6030BD1A213E4A4843104488
:10079000427B017B8A4200D3704720B53A4D891ACB
:1007A000A818C9B2BDE82040CFF7D2BF374901EB46
:1007B000C0000079FF2802D00121334A115470474C
:1007C0002DE9F14F82B00446FFF7B0FF029930489F
:1007D000DFF8C090DFF898A0DFF8BC802A4E455CB7
:1007E0002FE0E0B2FFF7A4FFFFF7A0FF28E01E23F1
:1007F00038F82B0000220092014659430AEB01030E
:10080000597E01916946FFF799FF08EB8B0000992B
:1008100000220BF1010B8378182010FB03F34B44EB
:100820005888E1F7B5FDF81CC0B28345DFDB0F49FE
:10083000E2B231F812000028D3D0401E21F8120095
:100840006D1C0299891CC9B28D4209D2EFB2F05DCC
:100850000028ECD00021114AF15512F807B0E2E768
:10086000E0B2FFF765FFBDE8F78F00003AE3002034
:10087000D43D4A00248A00203C8A0020388A002087
:10088000D489002088AC4A003CE3002024B34A000D
:1008900062B54B00F4DF4A00583D4A0042B54B00B8
:1008A0000E21634A48431118087A00281EBF4A885F
:1008B0004FF6FF739A4207D010460A7A5D495E4BA5
:1008C00001441844E0F777BA7047002900D1704717
:1008D00014225A4B5043F0B51A18507BC8B15388B4
:1008E00090881B1ADBB2A3B1937B9688544C524D6F
:1008F000E0180024AB19055D1F5D0E5DAF43354068
:100900003D431D5555889688641CAD1BEDB2AC4225
:10091000F1DBF0BD01460C2041434A4B2DE9F04389
:10092000494C4A4D5A18DFF82881B2F802C0DFF866
:10093000249126E0D07E012821D192F81CE0128972
:1009400039F81E0028F8120019E00CF1940080B26A
:100950001E26414F70433A18107FFF281EBF108992
:100960004FF6FF76B0420AD0D77A17B1022FE1D006
:1009700005E0D07E18B9107F2E5C108926540CF14A
:10098000010C5A5A9445E0D3BDE8F083F0B51E241B
:10099000002660430025304FFF24002938442146BB
:1009A00008D0C77A1FB1022F02D1012100E0002137
:1009B000C77E0CE0C77A002F07D0022F03D0042F88
:1009C00004D1022102E0012100E00021477C8F4296
:1009D00008BF012673B1C17A39B1022903D00429B5
:1009E00004D1022402E0012400E00024417CA14261
:1009F00008BF01252E4219D0C07A059920B10228DE
:100A000007D004280CD0F0BD144B0F4C595CA154F6
:100A1000F0BD134830F811300D4921F81230F0BD07
:100A2000104850F82130104941F82230F0BD000044
:100A300068DB4A00CCDC4A00A89000208CDF4A002A
:100A4000C8DF4A00C4B24A003C8A0020D48F00208C
:100A5000248A0020D08F0020D43D4A003C3D4A002B
:100A60002C3D4A00383D4A00388A00201822794B34
:100A700050432DE9F0431C18A388E088E27A1B1A42
:100A8000DBB2002B02F0070274D0267BFF25724BED
:100A90000846062E6ED8DFE806F00412166D256DA6
:100AA0001600218800788D40ED43E18895405C5C1C
:100AB00000FA02F22A40AC4322435A545AE0E28838
:100AC0000178995456E0E58800225919A688E588EE
:100AD00093B2761BF6B2B3423EBFC55CCD54521CF6
:100AE000F4D347E0E188B4F800C091460126C9F18B
:100AF0000809C2F1080EA0F10108194405FA02F331
:100B00000F7827EA03030B70077897403B430B707D
:100B1000A788E388FF1AFFB25FB911E018F8063022
:100B2000875D23FA0EF309F1080997403B438B5583
:100B3000761CA388E788DB1BDBB25B1E9E42EDDBE5
:100B40000CF1FF0418F806302406E40EF7B2BC429C
:100B500023FA0EF304D3805D00FA02F2D2B21343FB
:100B60008A5DCCF1080CE14425FA09F52B40AA4333
:100B700013438B55BDE8F0831822384B50432DE9C1
:100B8000F04303445C8898881A78241AE4B2002C55
:100B900002F007025CD09E7AFF242F4D26B1012E71
:100BA00010D0042E12D053E0587A09788440E443E0
:100BB000988894402B5C01FA02F22240A3431A4326
:100BC0002A5445E09A880878A85441E0054404FA7C
:100BD00002FC2F78587A90460126C8F1080827EAC7
:100BE0000C0C85F800C00F78974047EA0C072F706F
:100BF00007E08F5D08F10808974047EA0C07AF55FA
:100C0000761C8F19C2F1080E17F8017CB3F8049016
:100C100027FA0EFC5F88A7EB0907FFB27F1EBE42D2
:100C2000E7DB00F1FF031B06DB0EF7B2BB4205D387
:100C3000895D01FA02F2D2B242EA0C0CC0F108005E
:100C40004044C440A85D04EA0C01A0430843A855F1
:100C5000BDE8F083F4DF4A00A8900020A0C24A005B
:100C6000182201465143824B10B500201944CA7B1B
:100C7000FF2A09D08B7B2BB1032B04BF7D4C04EBE7
:100C8000C20001E07C4810448A7A082A02D1897D9A
:100C90007A48084410BD02460020002A00D0704760
:100CA0001822FF23514330B5714C21448D7A3DB158
:100CB000062D03D0082D04D10A2302E0062300E00C
:100CC0000023897C994208BF012030BD182250437F
:100CD000F8B5674B1A18D07BFF280ED0937B4BB129
:100CE000032B01BFD1E90067624B03EBC000C0E9F1
:100CF000006702E00C78604D2C54547D907D241ADE
:100D0000E4B244B1527D5D4B121A1844D2B2BDE830
:100D1000F840E0F750B8F1BD1822594B504310B5D8
:100D20001A18947BFF2C04D0507C10B90978524BD0
:100D3000195510BD2DE9FE4F8B46182107464C482A
:100D400079439046994600254618B27A22B1062A80
:100D500016D0082A2AD03EE0F07B0024FF2803D0DA
:100D60003846FFF77DFF047800F038F8002832D0CD
:100D700098F8001000232246584600F05DF829E05C
:100D8000F07B0024A246FF2804D03846FFF768FF16
:100D9000D0E9004A00F022F8E8B102955846CDE9C2
:100DA000004AD8E9002300F06FF813E0717DB07DB0
:100DB0000024091AC9B219B13846FFF751FF044699
:100DC00000F00CF838B10095737B22464146584636
:100DD00000F071F805462846BDE8FE8F39464846C2
:100DE00059E7F8B516461822254F044654430D46D8
:100DF00000203C44217AF1B9A77B0022FF2F04D0C8
:100E0000617C09B91C4A3A441278FF27002B217AE9
:100E100005D001B90027237BBB420CD104E001B906
:100E20000027647CBC4206D13178284601B00023FB
:100E3000BDE8F04000E0F2BD70B5124D044604EB91
:100E4000440400202C442678022E07D0032E0DD116
:100E50006278A3781140994208D006E0002B01BFC8
:100E6000637819401A40914200D0012070BD000003
:100E7000F4DF4A0058260020B0930020A8930020F9
:100E8000A0C24A004C3D4A00F8B50021C4B284B962
:100E9000089C6CB90025441EDDE9066765F1000574
:100EA00022402B4026402F40BB4208BFB24200D018
:100EB00001210846F2BD70B504460020E4B254B9E1
:100EC000049C3CB900E0641C9C4204D20D5D165D9C
:100ED000B542F8D0012070BD10B505480021016071
:100EE00000228260034B43600724046010BD00BFF2
:100EF00010E000E0BFD4010070B504000D4600F022
:100F00009FFA206CE16B2268002600FB01F3491E6A
:100F100048434FF0FF311344A3601044A663E060E0
:100F200004F1440062600170417075B92069A0B19C
:100F300004F11000C6F7BFF978B14FF08050DFF828
:100F40004816086000F0EBF807E004F11000E1F744
:100F50008FFC04F12400E1F78BFCE1F739FC012060
:100F600070BD7CB51C46502310B900F028F8FEE790
:100F700014B900F024F8FEE71AB119B900F01FF80F
:100F8000FEE759B950250095009E502E09D1009BCF
:100F90009CB100290CBF2460226005E000F00FF82E
:100FA000FEE700F00CF8FEE7069DE06321640121F6
:100FB0002046FFF7A1FF84F84C50204676BD72B65C
:100FC00083F31188BFF34F8FBFF36F8F62B6704703
:100FD0001CB50B460090002200210120FFF7C1FF45
:100FE000040007D000210022A16000232160E260FC
:100FF00000F002F8204616BD2DE9F64782B00446FF
:101000009A46502714B900F011FAFEE70E0001D1FC
:10101000206C68B9BAF1020F02D1E06B01280AD145
:10102000C6F73BFA50B9039840B100F0FFF9FEE76C
:1010300000F0FCF9FEE700F0F9F9FEE7274600248E
:1010400000F041F92DE00398002849D00CB900F0D8
:10105000E9F9E1F7BDFBC5F7ACFFE1F79CFB07F150
:10106000440000F0D5F904BF0022027000F0D5F969
:1010700004BF00224270E1F7ABFB00F04AF8002801
:1010800041D1E1F788FBB86BF96B884214BF0025AA
:101090000125E1F79DFB3DBB384600F025FAC5F779
:1010A0008EFFE1F778FBB86BF96B884202D3BAF197
:1010B000020FC8D152463146384600F0CEF9796A5F
:1010C00029B107F12400C6F7F6F808B902E008B123
:1010D00000F023F8E1F77CFB012004B0BDE8F087C5
:1010E000E1F776FB0020F8E7039907F11000C6F757
:1010F000A6F8384600F0F8F9C5F761FF0028D0D10E
:1011000000F00BF8CDE7384600F0EEF9C5F757FFD1
:10111000E8E703A96846C6F701B9C8F80090BFF32D
:101120004F8FBFF36F8F70472DE9F04704000E46D5
:10113000154699464FF0500802D100F046F8FEE7F8
:101140000EB9206C50BBB9F1020F02D1E06B01283F
:1011500027D1E1F75FFBEFF3118700F036F8A06BC2
:10116000E16B884202D3B9F1020F29D194F945A06D
:10117000A06B4A463146204600F06FF91AF1010F84
:1011800012D1606AD0B104F12400C6F794F80028A7
:1011900018BF002D12D0012028600FE000F015F8D4
:1011A000FEE700F012F8FEE7BAF17F0F02D100F07F
:1011B0000CF8FEE70AF1010A84F845A0012000E0DE
:1011C000002087F31188BDE8F08772B688F3118894
:1011D000BFF34F8FBFF36F8F62B670472DE9F743B0
:1011E00006460F460024502516B900F071F8FEE7B8
:1011F0000FB9306C38B9C6F750F958B9029848B1F0
:1012000000F066F8FEE700F063F8FEE700F0FEF895
:10121000C5F7D5FEE1F7BFFAB56B00F054F8002D25
:101220002FD10298002840D00CB900F0FBF8E1F76C
:10123000CFFAC5F7BEFEE1F7AEFA06F1440041571A
:1012400011F1010F04BF0022027000F0E6F804BFA4
:1012500000224270E1F7BCFA02A9FFF75BFF002809
:10126000304626D100F074F90028CFD000F0C9F83C
:1012700000F0CCF8C5F7A3FE0028CBD1FFF74DFF57
:10128000C8E73946304600F01CF96D1EB563306979
:1012900030B106F11000C6F70EF808B1FFF73DFFB8
:1012A000E1F796FA0120BDE8FE83E1F791FA00200C
:1012B000F9E700F019F9C5F782FE304600F048F969
:1012C0000028A7D0F3E7DFF8C0824FF080597047BD
:1012D00072B685F31188BFF34F8FBFF36F8F62B67D
:1012E00070472DE9F24382B00646002400255027BE
:1012F00016B900F09BF8FEE7306C10B100F096F8DC
:10130000FEE7C6F7CAF840B9029830B100F08EF88F
:10131000FEE700F07BF8C5F752FEE1F73CFAB06B50
:10132000FFF7D1FF002838D10298002849D00CB926
:1013300000F078F8E1F74CFAC5F73BFEE1F72BFA3D
:1013400006F1440000F064F804BF0022027000F0CF
:1013500064F804BF00224270E1F73AFA02A9FFF7ED
:10136000D9FE0028304630D100F0F2F80028D0D065
:10137000306838B9E1F70FFAB068C6F79DF805464E
:10138000E1F726FA00F03DF800F040F8C5F717FE47
:101390000028C2D1FFF7C1FEBFE7401EB06330682E
:1013A00010B9C6F74BF9B060306930B106F11000E2
:1013B000C5F781FF08B1FFF7B0FEE1F709FA012098
:1013C0001DE0CDB100F032F8FEE700F08DF8C5F772
:1013D000F6FD304600F0BCF800289ED075B1E1F76C
:1013E000DAF9706A00281DBF316B0968C1F1090183
:1013F0000021B068C6F7D9F8E1F7EAF90020BDE8A6
:10140000FE83029906F12400C5F719BF30466BE050
:1014100090F9001011F1010F704790F9011011F1CE
:10142000010F704768460124C5F771BF72B687F394
:101430001188BFF34F8FBFF36F8F62B67047040000
:1014400009D172B6502080F31188BFF34F8FBFF3DC
:101450006F8F62B6FEE7E1F79EB9F8B5064615460E
:10146000B46B326C002742B9316831BBB068C6F743
:1014700061F800210746B1601FE065B97068A3F705
:101480004BF8B2687068316C08449042706014D3B5
:101490003068706011E0F068A3F73EF8306CF168D6
:1014A00040420144F1603268914202D2B36818446C
:1014B000F060022D01D104B1641E641C3846B4638F
:1014C000F2BD38B5026C0B466AB1C168846811443C
:1014D000C160A14224BF0568C560C1681846BDE867
:1014E0003840A3F719B831BDF8B5054605F14404F5
:1014F000E1F751F994F9016007E005F12400C5F71F
:10150000DAFE08B1C5F741FF761E70B2012802DB92
:10151000686A0028F1D14FF0FF366670E1F758F99C
:10152000E1F739F994F9007007E005F11000C5F70B
:10153000C2FE08B1C5F729FF7F1E78B2012802DB81
:1015400028690028F1D12670BDE8F140E1F740B9E3
:1015500010B50446E1F71FF9A06B441EA441E1F762
:1015600037F9E00F10BD10B50023084C54F83320B4
:101570001AB15B1C082BF9D310BD44F8331004EBEF
:10158000C301486010BD000004ED00E05C7E002057
:10159000F8B504460D46164604F13807E1F7FBF8A6
:1015A00097F90C0010F1010F04BF0021397397F96E
:1015B0000D0010F1010F04BF00217973E1F708F964
:1015C000386828B93246294604F12400C5F75AFE86
:1015D0002046BDE8F24087E7024803497422A2F79B
:1015E0009BBF000050AE0020E80A4B0010B50F4C26
:1015F00020460121017007F0BEFEC046C046A01C77
:10160000BDE81040BFF7E5BA08F0A4B880B50748B8
:10161000002100F8021B3A21CFF79AF8002007F0CA
:1016200088FEBDE8014008F07BB80000B0DF002074
:1016300080B508F0C9F808F053FA09F01FF9B8F7B7
:10164000D5FF0149C87401BDE804000010B51C4C69
:10165000A078401E03281DD8DFE800F002040C1615
:10166000022018E0B8F768FD017821704178032066
:10167000617010E0B8F760FD3D210170B8F75CFDC6
:101680003D224270A07806E0B8F756FD217801703F
:10169000617841700020A07010BD80B5A9F782FE6E
:1016A000602802BF06498878002803D101228A7089
:1016B000FFF7CCFF0348BDE8024000F08BBC000000
:1016C000ACDF0020A80E00007548002101707047B3
:1016D00038B501781C46012511B1312222700AE08B
:1016E0001188401C491EBDF701F9C0B23C2806BF55
:1016F000242121700025284632BD2EE010B50C466D
:10170000BDF7E3F8C0B21728607014BF1D28012090
:1017100004D010B92421217001E014202070002091
:1017200010BD70B5128801241D46112A04BF01782E
:10173000002902D031232B700BE05A4E00F03EF806
:101740003046BCF7A9FDC0B23C2806BF2420287053
:101750000024204670BD000000BF12201870012038
:10176000704710B50C464F48BCF7B3FDC0B23C28DB
:1017700008BF012104D010B92422227001E01421F5
:1017800021706070002010BD70B5128801241D46C4
:10179000112A04BF0178002902D031232B700BE0FD
:1017A000414E00F00BF83046BCF76DFEC0B23C284D
:1017B00006BF242028700024204670BD411C102242
:1017C0003046A2F7A9BEC8E738B50D463649A81C71
:1017D000BCF783FEC4B23C2C08BF012104D014B96D
:1017E0002420287006E014212970FF221021A81C53
:1017F000A2F79EFE24E038B500781C46012510B102
:101800003121217007E0BCF797FFC0B23C2806BF2A
:10181000242020700025284632BD9EE738B50D46AD
:10182000A81CBCF7A1FFC4B23C2C03D014B92420DF
:10183000287005E01021FF222970A81CA2F778FE6D
:101840006C70002032BD10B50278012112B1312434
:101850001C7005E0154C2046BCF79CFF207300214E
:10186000084610BD79E710B5242008700F48027BA8
:101870004A7003788B704478CC7082780A7143790F
:101880004B7182798A71C379CB71427A0A72037A79
:101890004B72C2788A720079C872002010BD0000B5
:1018A0002BE40020A8AD0020B8AD0020C8AD00207A
:1018B00010B50178012411B131221A7004E01188A9
:1018C000401C0024BCF774FD204610BD45E738B528
:1018D0000C46154629882B46A21C401CBCF792FDDD
:1018E000C0B23C2808BF012104D010B924222270C4
:1018F00001E0102121702B889B1C2B806070002040
:1019000032BD002070470020704700207047002043
:10191000704700207047002070470020704700206B
:10192000704700207047002070470020704700205B
:10193000704780B5BEF775F9BEF72BFABEF7DDFA32
:10194000BEF785FBBEF73BFCBEF7DEFCBEF73BFDFA
:10195000BEF7EDFDBEF79CFEBEF73AFFBEF7E8FF0F
:10196000BDE80140BFF792B870B504460948206051
:10197000002661600021A16004F11405E1602846A1
:1019800026610821CEF7E4FEAE6020462E736E730A
:1019900070BD00BF84184B000F4A30B502F1080338
:1019A00002F1640480320360C16000218260002281
:1019B000016100F11C034161084944608261D1E981
:1019C0000045C3E90045426200F12E0102854285CF
:1019D00082850A704A7030BD641B4B0084AC49009C
:1019E00070B504460D460D480021206004F110003A
:1019F00061600026A160A18109F013FC29016560E6
:101A0000A160B1B204F1100009F01EFC0560761C63
:101A1000B0B21028F5DB204670BD00BF4CFF490076
:101A200070B50D461646E96804462A46AEF775FCC1
:101A300004F11C0009F014FC00F003F8A662E16256
:101A400070BD064800F1080100F180029C30216061
:101A5000E06100216260204665627047001A4B0019
:101A600010B5044694F8200058B3616A086902680A
:101A700093689847626A53691946814288BF014654
:101A8000107E00B1591AA06A10B109F0F1FB0146AD
:101A9000606A0289B2F57A7F04D051434FF47A72BA
:101AA00091FBF2F1B0F91A30C069C91840B102686F
:101AB000D3689847606AC06901688A6890470146A0
:101AC000E16210BD1C3810B50446AEF76BFCA06A8D
:101AD00020B109F044FC08B9152010BD216820464A
:101AE0008A6EBDE8104010471C3810B50446AEF7AA
:101AF00059FC21682046CA6EBDE8104010470020FE
:101B0000704700207047000038B50D460446A968AC
:101B1000AEF702FC0948002100F1080200F17C0345
:101B200098302260E0612046636084F8201065628E
:101B30002185E1622163616332BD00BFB81A4B00A9
:101B400038B50D460446296A2A46AEF7E6FB084832
:101B5000002100F1080200F17403226090306360FC
:101B6000E061204684F820106562E968A16232BD18
:101B7000201C4B00B0F104002DE9F843074607F1A3
:101B80002E052DED028B82B02878002800F0DF8032
:101B9000F968D7F8148008690268136B984740B158
:101BA000F868406901680A6B9047060002D0012678
:101BB00000E00026B2A001680091FA6800F051F937
:101BC000300056D0F86800690168CA68904704463A
:101BD000F86840690168CA689047F968F7EE000A3A
:101BE00001EE100A01EE904A0B6BB8EEC11A91EDAE
:101BF000060A70EEC00A6343F8EEE11A93FBF0F8B0
:101C0000088F40455ADA97ED072A20EE822A01EE26
:101C1000802AD7ED081A60EEA10A41EE000AC7ED4E
:101C2000080A87ED072A82EE200A8DED000AF8687F
:101C3000798D828F914210D3C06869460368DA6853
:101C40009047F86800F012F9384600F085F8014630
:101C5000384600F0B6F8002101E0808E4118798501
:101C6000F968BA8D91F83E00824218BFB885398D67
:101C7000002965D0FA6892F83F00884219D2386985
:101C8000B8B112685389994213D300EE101A026852
:101C9000B8EE400AD7ED090A80EE800AB6EE001AC7
:101CA000136930EE011ABCEEC11A11EE101A89B296
:101CB0009847002038857862386141E0888EB98D78
:101CC000884202D2081AB8853AE00024A14681EE83
:101CD000818A15E0486850F829000168CA69904770
:101CE0000146F8688068A9F75EFF38B1F8680168B6
:101CF0004A6852F829303B6114BB012409F10109FB
:101D0000F86801680A899145E4D3398D4FF6FF736D
:101D1000994215D090ED0A1A3846F7EE000AB0EE57
:101D2000480A00F019F800EE100A388DB8EE400AA3
:101D3000D7ED090A30EE200A401C87ED090A3885E4
:101D4000B86900280CBF4046012678616E7002B069
:101D5000BDEC028BBDE8F18301460020C968D1EDDE
:101D6000081AB4EE610AF1EE10FA29D54A8FF7EE9F
:101D7000002A02EE102AB8EE422A22EE002A32EEA3
:101D8000C00A82EE000A80FE410AF7EE001AC1EE98
:101D9000801A91ED073A31EEC33AB7EE002A82EE8F
:101DA000032A82FE200AB4EE410AF1EE10FA07D5AA
:101DB000F6EE000A30EE200ABCEEC00A10EE100A61
:101DC000704770B504460D46002609E00068F1B280
:101DD00050F8210018B10268294693689847761C8C
:101DE000E168F2B2486843689A42EFD38868BDE878
:101DF0007040D2F7FDBD00007CB504460025E168C7
:101E000008690268536998470646E06840690168B6
:101E10004A69904786420CD1E068006901688A6986
:101E200090470646E068406901688A6990478642A3
:101E300000D0152511A001680091E26800F011F8AA
:101E4000E06800F013F82046FFF786FF01462046C1
:101E5000FFF7B7FF002001216061284684F82E10AB
:101E600076BD6946D06803689A6810479DED000A00
:101E700090ED0A1AD0ED090A70470000000000003A
:101E800000000000B0F11C0010B5414B01211960A9
:101E90009968DA681B69B7EE000AFFEE000A0C04C5
:101EA0004CBFB0EE601AB0EE401AC1F30E01DFED88
:101EB000361A02EE101A1104B8EE422A22EE011A66
:101EC00021EE211A80ED0B1A4CBFB0EE601AB0EE75
:101ED000401AC2F30E0202EE902A1A04F8EE622AA9
:101EE00062EE812A62EEA12AC0ED0C2A48BFB0EE54
:101EF000600AC3F30E03012100EE903A80F820102F
:101F0000F8EE600A20EE800A20EE210A80ED0D0A2C
:101F1000002010BD1C3800211D4A116080F82010DF
:101F20000020704710B5044694F8200050B3616A51
:101F30004868026893689847626ADFED140A94ED76
:101F40000C1AD4ED0B1A118853884843D84000EE80
:101F5000100A9068B8EE400A20EE200A0189D4EDFC
:101F60000D0A41EE001A60EE800A40EE801A00EE83
:101F7000101AB8EE400A21EE800ABDEEC00A10EE3B
:101F8000101A218510BD00000000803D6F12833AB9
:101F900000C0374038B50446A16848680268D36875
:101FA00098470546A06880680168CA689047A2689B
:101FB000D168694308B191FBF0F1106940B1026842
:101FC000D3689847A068006901688A68904701460D
:101FD000E16031BD2DE9FE4F0446616820690A6960
:101FE00010602069012809D0022857D0032800F08A
:101FF0004381B64B984200F0868064E1616888684E
:1020000010B180470028F8D160680021C58B868B0D
:102010008069AD000835E161401C401B761B23E060
:102020006168E068761BCA68801C90476168E0615F
:10203000E068CA68C01C9047E369616843EA00230E
:10204000E068E361CA68001D9047E369616843EA9C
:102050000043E068E361CA68401D9047E36943EAD2
:102060000063E068E361401BE060002E10DD616802
:10207000E068CA68C01D9047AA2806D16168E06878
:10208000CA68801D9047AA28CAD0022020611AE1A0
:1020900000211A22216184F8212014E194F8200003
:1020A00000234FF6FF710090A268204600F03EF931
:1020B000014694F82050FF208DF804006268D68B0A
:1020C00008E001200023009001AA20466D1C00F0CA
:1020D0002DF90146B5EB860FF3D3E0692175090AA6
:1020E0006175401CE061E069E169A075E069090A79
:1020F000E175E169000C2076AA20090EA0766176D0
:102100007249E076DEE013F05FF8002818BF01287E
:10211000C3D16068806810B180470028BDD1606875
:102120006B4D0026DFF8AC9104F114080168884774
:10213000694B012194F82020D4F80CE019600020AC
:10214000AE65664EC6F80490CEF3840C0832DFF814
:10215000909107E03168490849003160376827F4F9
:102160008077376090427DD2C5F800E0D9F80070E2
:10217000316811F47F0F35D0D9F80010B9423DBF56
:102180004FF0FF3AAAEB070A5144C91BD4F804B038
:10219000DBF814A08A45EBD294F821100029E7D18E
:1021A000062784F821701DE0DDF800A0401C904255
:1021B00047EA0A0700972EBF4FF07F4798F8037051
:1021C0003F06DDF800A0DFF81CB1401C0EF1040E44
:1021D00008F1040847EA0A070097009F4BF82C70A3
:1021E0000CF1010CBCF1200F38BF90421CD2082822
:1021F00008BFD4F8088098F80070401C90420097FF
:102200003ABF98F801703F024FF47F47DDF800A015
:10221000401C904247EA0A0700973ABF98F80270BC
:102220003F044FF47F07BFE731684FF0000C41F4E3
:1022300080713160376847F001073760D9F80010C6
:102240000027D4F804A0DAF814B05F4582D2D9F898
:1022500000A08A452FBFAAEB01074FF0FF377F1A76
:102260005744EEE703200021206101221960AA658E
:1022700060684168884726E0E66800256168304666
:10228000CA68904704F11403595D884204D1761C52
:102290006D1C082DF2D314E0002501E0761C6D1CA6
:1022A00094F82010E8B2884208D262683046D368B9
:1022B0009847A168EBB2CA5C9042EFD0172084F82F
:1022C000210000212161BDE8F78F000055AA55AA21
:1022D00000832640000010339883264000C02E4023
:1022E000041000E000C12E4070B503690924DBB979
:1022F0004568EB68002B1CBF2C68002C01D06B6874
:102300000BB9032410E013000DD0EB8B9B0093421C
:1023100009D3012500260561002480F8216080F89A
:102320002020816000E00724204670BD70B5049D28
:10233000002610E098190824105C81EA0021C80BDF
:1023400000F00100490018B181F4883181F02101C9
:10235000641EF4D1761CAE42ECD388B270BD00008E
:10236000854A02F108033032036081600021426037
:10237000C1600182704750B581680A694FF6FF71EC
:1023800013884FF6FE72934218BF8B4205D04EF66B
:102390006126B342A8BF4EF66023038283685C685F
:1023A0009B681E882488F643B6B2B44204D1038ADF
:1023B00093421CBF8B42048250BD00224FF6FE7335
:1023C00070B599421FBF4FF6FF74A142058AA9421A
:1023D0001BD04EF66126B14217DA9D4218BFA542C6
:1023E00013D0806864250369007D1B88C0F16404F4
:1023F0005C43B4FBF5F5A94207D364304343642042
:10240000B3FBF0F0884228BF0122104670BD38B5FA
:1024100005460C46E868E8B100EE104AB8EE400AFE
:10242000F7EE000A80EE800A00EE900AF8EE600AED
:10243000B7EE001A81EE201A30EE411AF7EE001ABC
:10244000C1EE811AB6EE002A31EE822ABDEEC22A12
:1024500012EE104AA1B22846FFF7AFFF68B1A86894
:102460002C82006808B1804738B1A86841680C80A8
:10247000A4B2AA68E4439068048031BD001F0146FD
:10248000088A02001CBFC96800291DD000EE100A8E
:10249000B8EE400AF7EE000A80EE800A00EE901ACD
:1024A000F8EE600AB7EE001A81EE201A30EE011A3B
:1024B000F7EE001AC1EE811AB6EE002A31EE822A3A
:1024C000BDEEC22A12EE100A80B27047001F008AC9
:1024D0007047001F8068C0687047C1607047274A16
:1024E00002F1080328320360816000214260C1606C
:1024F0007047002104E0012102E080680068704715
:102500002DE9F84307460C462DED028BB8680025EF
:102510009FED188A4FF6FF7850F8046F416806EB7C
:10252000810906E04FF6FE72904201DA00F028F8C9
:10253000361D4E450AD030680028F9D00168CA68B7
:102540009047404518BF0028ECD14546F86810B1C7
:102550000CB900F015F8454507D0B7EE001A81EE2A
:10256000081ABDEEC11A11EE105ABDEC028BA8B2CA
:10257000BDE8F28300000000F01C4B003C1D4B0046
:1025800000EE100AB8EE400AF7EE000A80EE800A6C
:1025900030EE088A7047001FC160704738B50446A6
:1025A0000D46A9F7E3FA0B4800F1080100F14402D7
:1025B00060302160A0600021626020466561A161F9
:1025C000E1612162A184E18421856185E16284F871
:1025D000301032BDFC1E4B0038B50446094820605F
:1025E0000025616004F11000A5600621E560CEF7CA
:1025F000AFF804F116000621CEF7AAF82577204699
:10260000657732BD081E4B0038B50D46044605F10E
:102610000C01A9F7ABFA0B48002100F1080200F108
:10262000440360302260A06004F1240063606561AF
:10263000A161E1612162017041708170C17001711D
:10264000204632BD701D4B0038B50D46044605F1DD
:102650004801A9F78BFA164800F1080200F1480377
:10266000226000F1640188300022606104F12000E2
:102670006360A160A56104F1CC05E26108F079FE18
:1026800004F1580008F075FE04F1900008F071FEA6
:1026900004F1C8000421CEF75BF828460421CEF7E8
:1026A00057F800200021686029726872204632BD08
:1026B000680A4A0038B504460D46A9F757FA0F488C
:1026C00000F1080100F14802216000F16403883044
:1026D0006260606104F11C00A360A561A8F702FFBD
:1026E00004F12800A8F7FEFE04F134000021017077
:1026F00041708170C170204632BD00BF681E4B0022
:1027000010B50446216948680268D3689847E075A7
:102710000120A075002010BD10B500F00CF8E1F705
:10272000D5FB04F16800E1F7D1FB04F19000BDE8AE
:102730001040E1F7CBBBDFF8704400202070DFF8D9
:102740006C34607042F6E0621870E071A070207125
:102750006071A071E063A081E081A06304F1480092
:102760002281704770B5DFF848442078C0F38000BC
:1027700098B1657B3220DFF83064002300224543A6
:1027800006F18C002946EAF7CFFFA37B42F21070D6
:102790000121B563B1704343F36370BD0020DFF8DE
:1027A0000814C8637047F8B507460E46DFF80404FE
:1027B000144601681D46CA6890470A23DFF8E813EB
:1027C00090FBF3F33B70886B0A22B0FBF2F232709D
:1027D0000B790E7848798A79DB0043EA061343EADD
:1027E0008003887843EA420303432370DFF8BC3355
:1027F000C9791C7801F00F0141EA04112970F1BD7B
:10280000F8B5DFF8B453642695F82B4084B06043E4
:1028100090FBF6F67418DFF8A41301F239470A208A
:102820003D784443A4B2C5F3800028B3DFF8785361
:10283000A87808BB012B05F18C0613D101F25C408E
:10284000002201886962408821462862FB7B684635
:1028500008F096FD01463046EAF7D2FF4FF0FF310F
:10286000A96309E0A86BA04205D0134600222146C7
:102870003046EAF759FFAC6305B0F0BD0000000038
:102880002DE9F84FDFF83843E07A810640F189817D
:10289000DFF82893DFF820B309F239404FF4FA7AD1
:1028A000017DDFF804630BF12E0506F18C08DFF8DB
:1028B000147311FB0AF131812878012806D10BF13C
:1028C0007501DFF804330A791878024340F0AE80CE
:1028D0003178032955D8DFE801F00220384300F0B1
:1028E00077F904280AD0397F012907D19BF84E00D7
:1028F00048B96978012944D1012024E0387F0228B1
:1029000010D001283DD1B87E00281CBF9BF84E1086
:10291000002936D00222327033E0687830B3387F35
:10292000022806D16878032818BF042829D103217A
:1029300026E0012825D1B87E00281CBF9BF84E1048
:1029400000291ED0022030701BE000F041F904285D
:102950000ED0397F01291CBF6878002806D007E017
:1029600000F036F9042803D0687808B9002107E0A0
:1029700000F02EF9042804D06878012801D1012143
:10298000317000F025F904284DD08848337801785B
:102990007078F279834203D0032B18BF022B0CD03E
:1029A000A079840712D5032B18BF022B0ED1B87E55
:1029B00060B199F83944E00708D57D480123C17812
:1029C00080780022FFF71CFF022113E0032B18BFC1
:1029D000022B06D0012B68780ED105280ED00022DC
:1029E00001E0B9F85E247248002341790079FFF7CD
:1029F00007FF01210A4613E0052809D16C4800238E
:102A0000C17980790022FFF7FBFE0121002207E057
:102A1000B078012804D000F0DEF800210022B16374
:102A2000624B1970F2713078707009E0B178012949
:102A300009D000F0D0F800205C490870F071B06354
:102A4000B07801280AD1F06B082828BF083804D2D2
:102A500000F0C1F80020B070B063F0635348027812
:102A6000100018BF012007F13701887099F8394428
:102A70000B7996F80090C4F30010B8B16878042878
:102A800014D1E87F90B1B9F1030F18BFB9F1020F6B
:102A90000CD1307918B901235046337109E070899F
:102AA000082828BF083804D2002001E00020307137
:102AB00000237081C4F3C0000B7168B1B9F1030F3A
:102AC00018BFB9F1020F05D0B9F1010F04BF387F6B
:102AD000022801D1012000E00020C8700B78C4F367
:102AE000401090B3F07902282BD1707910BB0123EC
:102AF000504673710223B081022A0B704B794C78D7
:102B000030D1B07928BB01220224B271A6F80EA000
:102B10004C702E4A107870BBD0793A7F012A28D0A9
:102B2000D42828D0F07840BB01234FF47A72326465
:102B3000F37027E0B08908283ABF00200023083846
:102B4000D9E7012808BF0123D6D0002000237071E7
:102B5000D2E7F08908283ABF4FF0000A0024A0F11C
:102B6000080AD3E7012A1DBF0020B0710024012408
:102B7000CEE7D42801D10020F070012B07D1306CB2
:102B8000082803D3326C083A326400E000234B710A
:102B90004046EAF74BFD06F16000BDE8F24FEAF768
:102BA0007DBEBDE8F18F0000C03400000EE40020BF
:102BB000013D00200C040000E8040000C83800209B
:102BC000203F0020580600004E2B00005D0500004D
:102BD0004046EAF71FBE0023002200214046EAF7E4
:102BE000A3BD000010B500F00CF8E1F76FF904F197
:102BF0003000E1F76BF904F15800BDE81040E1F74F
:102C000065B90021624C0120618021704FF6FF728E
:102C1000E18042F6E061607004F11000A280218141
:102C200070470A225A4910FB02F00123C8800B703A
:102C30007047002056490870704770B506460D462B
:102C4000544814460168CA6890470A230A2190FB39
:102C5000F3F333704E4E708890FBF1F1297006F15A
:102C600054000069C046727800F00F0040EA02107C
:102C7000207070BD4848494B2DE9F047027819781B
:102C80000024474D424E0A4302BFDFF8189199F8DD
:102C9000790000285CD1297E4FF4FA72424B11FB77
:102CA00002F23281187800284CD170784FF00A086F
:102CB0003E4F012819D1397F02292BD12A78C2F33E
:102CC000401038B3DFF8CCA000F074F830B900F051
:102CD00071F850B92878C0F3801030B14FF47A7190
:102CE000022071800124707023E0707802280FD1D7
:102CF000387F012814D12978C1F34010A0B199F888
:102D00002D0001210224717010FB08F0708010E08A
:102D1000012805D106F154000069C046022803D1FC
:102D20002878C0F3401020B999F82D1011FB08F154
:102D300071801F48ACF76AFD718820B14FF448716B
:102D4000002400E00021307818B1F188002400E070
:102D5000002171807188B08881420ED00022012C40
:102D600008BF2A8C02D0022C08BF6A8C002306F10F
:102D70005400EAF7D9FC7088B08006F15400EAF7F5
:102D800055FC06F12800BDE8F047EAF787BD0000D2
:102D9000D8360000982000004C2B00004D2B00007E
:102DA000003D0020E80400004E2B00005806000003
:102DB000087C0020DAF800105046CA68104700006E
:102DC00038B500F00CF8E1F781F804F13000E1F7D4
:102DD0007DF804F15800BDE83240E1F777B84FF6CE
:102DE000FF71714C00206180A0800125E08042F6D7
:102DF000E061207004F110006570218170470A22A3
:102E0000694910FB02F00123C8800B707047002055
:102E1000654908707047644840F2E931408888424B
:102E2000BABF0A2290FBF2F0FF20C0B2704770B523
:102E300006460D465D4814460168CA6890470A2355
:102E40000A2190FBF3F33370574EB08890FBF1F1F9
:102E5000297006F154000069C046727800F00F0036
:102E600040EA0210207070BD514841780A0700D432
:102E700070475049504A2DE9F0470B7810780025EB
:102E8000494C034302BF4D4A92F87910002971D191
:102E90004B4B1878002868D14A4E4FF4FA71B07E37
:102EA00002F12C074FF00A0810FB01F12181307864
:102EB000C10742D46278DFF81091012A19D199F83C
:102EC0001C1002292AD1C0F3401038B3DFF8DCA06F
:102ED00000F07EF830B900F07BF850B93078C0F3DC
:102EE000801030B14FF47A710220A1806070358C6F
:102EF00034E0607802280FD199F81C00012813D122
:102F00003178C1F3401098B138780121617010FB1D
:102F100008F0A080758C21E0012805D104F154004F
:102F20000069C046022803D13078C0F34010A8B928
:102F3000397811FB08F1A18010E0397B652909DAA5
:102F4000387D002814BFFA2032203D7C454311FB18
:102F500008F002E07F2901D16088A0801B48ACF70F
:102F600055FCA18808B14FF44871207818B1E18868
:102F7000002500E00021A180A1886088814207D05F
:102F800000232A4604F15400EAF7CEFBA0886080B3
:102F900004F15400EAF74AFB04F12800BDE8F047C9
:102FA000EAF77CBC000000008C330000C020000069
:102FB000203F00204C2B00004D2B0000E8040000B7
:102FC0004E2B0000003D002058060000087C002029
:102FD000DAF800105046CA681047000010B500F03B
:102FE0000CF8E0F773FF04F12C00E0F76FFF04F139
:102FF0005400BDE81040E0F769BF3B4C0020207052
:103000004FF6FF72608042F6E063A28004F10C008C
:10301000E38070470A22344910FB02F00123488004
:103020000B707047002030490870704738B505466E
:103030000C462E480168CA6890470A230A2290FB72
:10304000F3F32B702848818891FBF2F2227031BD96
:10305000274881788A0700D4704726484FF4FA72CF
:1030600070B590F84E14204C2348244E002511FBD7
:1030700002F2E280037831780B431ED1204A1078A7
:10308000002801BF1F4E06F17C004178D42911D1E0
:103090000278D42A1CBF817801290BD01A48ACF7DA
:1030A000B5FB002811BF4FF4487596F82B100A2283
:1030B00011FB02F5207800B16588A0882946884276
:1030C00006D00023002204F15000EAF72DFBA58072
:1030D00004F15000EAF7AAFA04F12400BDE87040B8
:1030E000EAF7DCBB000000004C360000D4200000F2
:1030F000203F0020C83800204C2B00004D2B000042
:103100004E2B0000E8040000087C002010B500F001
:103110000CF8E0F7DBFE04F13800E0F7D7FE04F12D
:103120006000BDE81040E0F7D1BEA14C4FF6FF7043
:10313000A080002000212070E1800022E06042F6A3
:10314000E0612061A07004F1180022816181627049
:1031500070470A22964910FB02F0012308810B7088
:103160007047002092490870704770B506460C46BB
:10317000904815460168CA6890470A230A2290FBC6
:10318000F3F333708A48C18891FBF2F2227083789E
:10319000407800F00F0040EA0310287070BD8448AA
:1031A00040F2E93180888842BABF0A2290FBF2F0EF
:1031B000FF20C0B270472DE9F047DFF8FC814FF4E3
:1031C000FA7208F587667A4C317D7C487C4F11FB9A
:1031D00002F26281ACF71AFBE38810B1397F012952
:1031E0000AD0784991F8790030B9774A01F1390568
:1031F0001178687E11B108B90023A5E0DFF8CC9101
:103200004FF47A7A99F80510002801F0040118BFEC
:10321000002940F0C680EA7E002A1CBF3A7F022ABD
:1032200040F0BD803078C0F34000002840F0A88016
:1032300099F80110C807E0D5654A92F8791001297C
:1032400002D0022902D003E002200AE0012008E0B7
:103250006078022808BF042003D001280CBF032097
:10326000002060706078042804D1002001212061D2
:10327000A17007E0002804BFA078012802D12169CD
:1032800008312161D8F8341520690AFB01F1884220
:1032900012D3A278012A0FD110214E48A8F783FC3F
:1032A00038B110214C48A8F77EFC10B1E388032008
:1032B00001E0E3880220A070387FE168B27802283C
:1032C00002D1C2F300179FBB94F801C0B6F8228068
:1032D00099F80170BCF1030F07D1C2F3C00EBEF123
:1032E000000F02D05FEA876E1CD401281CBFC2F316
:1032F0000010002827D1BCF1010F1CBFC2F3C00091
:10330000002804D0B80602D5A778022F1BD10021CF
:10331000C2F3801078B9A87A80B90023C2F34010B4
:1033200088B103E0C2F3401010B1002341460AE027
:103330000023002107E0E87A0028EED05346C2F3CC
:10334000401000B1318CE160207810B10021238958
:10335000E160E380E188A088884207D0E26800232A
:1033600004F15C00EAF7E0F9E088A08004F15C0079
:10337000EAF75CF904F13000BDE8F047EAF78EBAED
:1033800029786529E0DA287A002814BFFA2032204B
:103390002A795043E0600A2011FB00F3D4E70028AB
:1033A000D2D00029D0D000205346E060CCE7000006
:1033B000F432000048040000C8380020087C0020D7
:1033C00058060000E80400004E2B0000203F0020BB
:1033D000F4200000FC240000D826000010B500F006
:1033E0000CF8E0F773FD04F13800E0F76FFD04F12D
:1033F0006000BDE81040E0F769BD744C00206080BB
:103400000021E1804FF6FF702170218142F6E061DA
:10341000A080A08104F11800618170470A226B49E5
:1034200010FB02F0012308810B70704700206749F0
:103430000870704770B506460C4665481546016829
:10344000CA6890470A230A2290FBF3F333705F485F
:10345000C1885C3091FBF2F222700069C04628708E
:1034600070BD5C4841784A0700D470475A482DE93E
:10347000F0415A4D554C03782978E2880B4302BF3E
:10348000DFF85C8198F87900002840F08A80554B7D
:103490004FF4FA71587E544D544F10FB01F1618185
:1034A00029781878524DC0F38000002840D10022BE
:1034B0002261287801B168B33E7FA1894FF6FF7E73
:1034C000022E8C460BD171454FF47A7203D138B17C
:1034D00040F2537C04E019B1A1F1010C00E0F44684
:1034E000A4F80CC09878C0F3400121B111000CBFC2
:1034F000598C198C21616188914217D0C0F38000EA
:1035000038B9E28004F15C000069C0460228E28814
:103510000CD06280E2803748ACF778F900B3387F8E
:1035200002280CBF4FF44870002016E06288F1E7D3
:1035300081B908F13A010B78652BEBDA087A00289B
:1035400014BFFA2032200979484320610A2013FB76
:1035500000F2DFE700222261DCE7E080002020614A
:10356000254991F85E20022A06D098F80C0018B977
:10357000A18921B9287810B10021E180216120784A
:1035800018B1218900202061E180E188A08888426B
:1035900010D02269002304F15C00EAF7C5F8E08846
:1035A00007E000230022002104F15C00EAF7BCF8E8
:1035B0000020A08004F15C00EAF738F804F1300044
:1035C000BDE8F041EAF76AB900000000A435000048
:1035D00070200000203F00204C2B00004D2B0000ED
:1035E000E8040000003D00204E2B000058060000BB
:1035F0004F2B0000087C0020CC2200000A229749B3
:1036000010FB02F0012388800B7070470020934963
:103610000870704738B505460C4691480168CA687D
:1036200090470A230A2290FBF3F32B708B48C18842
:1036300091FBF2F2227031BD884840F2E9314088B6
:103640008842BABF0A2290FBF2F0FF20C0B2704756
:1036500010B500F00CF8E0F739FC04F13400E0F7A5
:1036600035FC04F15C00BDE81040E0F72FBC4FF6DC
:10367000FF717A4C00206180E0800121A08042F639
:10368000E063E060207004F11400617023817047F2
:103690002DE9F84F734D744FE87C4FF4FA71734C79
:1036A0002A784FF448784FF00A0910FB01F370496B
:1036B0000E78397894F879006E4F2D3497F801E040
:1036C000664F41EA060C6C4E31785FEA8E7645D53E
:1036D000BCF1000F08BF002832D1684D287818B11E
:1036E000D20901D0387858B33B81B1B9A17A6529A4
:1036F0000ADAA07C002814BFFA203220A27B11FB3A
:1037000009F1F9805043F8605D48ACF77FF838B1B3
:103710000020A7F80680F86002E00021F980F96037
:10372000387818B1B9880020F860F980F98878886D
:10373000884209D0FA68002300F0A9F8F88802E06E
:1037400000F0A2F80020788007F12C00EAF7A6F834
:1037500007F15800BDE8F24FE9F768BF5FEA4E662F
:1037600078D5BCF1000F08BF002865D100260029DC
:103770003B8149D17878DFF80CA1012819D19AF85A
:103780001C1002292AD1C2F3401038B3DFF8D0B0A0
:1037900000F081F830B900F07EF850B92878C0F315
:1037A000801030B14FF47A710220F98001267870D0
:1037B00022E0787802280FD19AF81C00012813D152
:1037C0002978C1F3401098B1207801210226797040
:1037D00010FB09F0F8800FE0012805D107F158002F
:1037E0000069C046022803D12878C0F3401018B9F8
:1037F000217811FB09F1F9802148ACF707F828B1CD
:10380000A7F80680002601E0FE80FE60387810B13F
:10381000B9880026F980F9887888884210D000227B
:10382000012E08BF2A8C02D0022E08BF6A8C00230A
:1038300000F02DF8F88802E000F026F800207880EB
:1038400007F15800E9F7F2FE07F12C00BDE8F24F4E
:10385000EAF724B8BDE8F18F000000001C34000036
:1038600020040000003D00204D2B0000E804000073
:103870004C2B0000203F00204E2B00000EE40020C7
:10388000087C00205806000000230022002107F1D8
:103890005800E9F749BFDBF800105846CA681047DE
:1038A00010B500F00CF8E0F711FB04F12C00E0F784
:1038B0000DFB04F15400BDE81040E0F707BB3A4CA3
:1038C0004FF6FF7100226180227004F10C00A2808B
:1038D00070470A22344910FB02F0012388800B70E4
:1038E0007047002030490870704738B505460C46CF
:1038F0002E480168CA6890470A230A2290FBF3F316
:103900002B702948418891FBF2F2227031BD284981
:10391000F8B5087B0024002843D0264A26481378AF
:103920000178214D0B4301BF244A02F17903187835
:10393000002821D122494FF4FA7091F85364214FA5
:1039400016FB00F0E880397899B992F84F0000280A
:103950001FBFD978D4295879012804D092F82B10A8
:103960000A2211FB02F41848ABF750FF08B14FF4DC
:103970004874287800B1AC8868882146884206D00F
:103980000023002205F15000E9F7CEFE6C8005F11E
:103990002400E9F783FF05F15000BDE8F240E9F7A4
:1039A00045BEF1BD0000000068370000340400008F
:1039B000B41B00004C2B00004D2B0000E80400005D
:1039C000C83800204E2B0000087C00200146002053
:1039D0000A0010B53AD040F2E933994236DA0A22A9
:1039E000DFF8040491FBF2F100EB410490F8560477
:1039F0004FF4FA71DFF8F423B4F85E34B7EE001A2E
:103A0000D2ED020A4843F8EEE00A00EE103A0BD07D
:103A100001EE900A9FED3E1AF8EEE11A61EE811A6E
:103A200020EE811A81EE811AB8EE400A9FED392A04
:103A300030EE020AF3EE0E2A60EE222A62EE812AAE
:103A4000C2EEA00AFDEEE00A10EE900A80B210BDB0
:103A500010B500F020F8DFF89803C17ACA0619D52E
:103A6000DFF890134B78DA0714D5807A430603D534
:103A70000878C0F3400068B904F15000E0F726FA76
:103A800004F17000E0F722FADFF86C03BDE81040A3
:103A9000E0F71CBA10BDDFF86443002020614FF04E
:103AA000FF32206460642075E0822046A26407F043
:103AB00071BCDFF84813C8820120C8747047012028
:103AC000DFF8381308757047F8B507460E46DFF87B
:103AD0003003144601681D46CA6890470A230A212C
:103AE00090FBF3F33B70C54FB88990FBF1F1317057
:103AF000C4480069C0463A7C00F00F0040EA02105A
:103B00002070C148017809012970F1BD0000000052
:103B100000007A4400401C462DE9F84FDFF8E4B27B
:103B200084B09BF8080000281EBFB84D95F87910A6
:103B3000012900F05581B648B64B02781978AF4E8E
:103B40000A4302BFB44C94F87900002840F03A814F
:103B5000B249097F022902D1012272740BE0707C04
:103B600048B1012907D10023002158460027E9F771
:103B7000DBFD3782B7649C4F4FF00A0907F5A56853
:103B8000B06CB8F8021009FB01F1884202D208308B
:103B9000B0641EE158460069C046042800F0F18078
:103BA000307C032800F0F080304607F2394A07F0F5
:103BB000F1FB9B49087800286DD19AF8000004F1C8
:103BC0002B04800949D095F87910022945D18E4DF2
:103BD0002978022904D0022804BF227A022A18D1A7
:103BE000D8F8181007F25C40438802889AF80970E8
:103BF0009AF80AC0C9B20091207864214743304640
:103C000097FBF1F18C441CFB09F189B207F0C9FB69
:103C100021E0012904D0022804BF227A012A11D10F
:103C20009AF80B1020789AF80C5064230022414334
:103C3000304691FBF3F35D1915FB09F189B207F0EA
:103C4000BFFB0AE021B1022804BF207A002804D17A
:103C50000021B173B181032028706549D8F8042090
:103C6000CD79D8F808309AF81E002F0719D5497970
:103C7000CD0747BFA57AA779E57AE77915FB09F162
:103C8000012F1CBF042F052F04D1642D02DC00225C
:103C900089B215E0022F22D1642D20DC009089B278
:103CA0001AE06179012918BF032903D0042918BF3C
:103CB000052909D1657A642D06DC002215FB09F17E
:103CC000304607F07DFB0AE0022908D1617A6429B9
:103CD00005DC009011FB09F1304607F062FBF17C36
:103CE000B07C012908BF002805D101200021B07453
:103CF000F174317501E0012810D1F08A30B19AF8E1
:103D000010103220012211FB00F101E001220021FC
:103D1000304607F055FB706C08307064B17C0129A7
:103D200011D1327D012A07D0B8F8001042F210708C
:103D3000726C4143914206D20023B373B381337551
:103D40007382736403E0317CB07B0A4618B900F0DB
:103D500069F8002214E0012807D1B189002300226C
:103D60005846E9F7E1FC01220AE0022808D10129BE
:103D700005D100F057F800200322306400E0022251
:103D80003274307C03280AD1306CB168083081422B
:103D900028BF30641DD202223064327401E0022850
:103DA00017D1B168F37BB162B18970680022F0620B
:103DB000684607F0E5FA01465846E9F721FD00207C
:103DC000307406E000210022318200235846E9F7D2
:103DD000ABFC5846E9F72AFC06F16800E9F75EFDFE
:103DE00005B0BDE8F08F0000C8380020DC0E0000F0
:103DF000203F0020013D0020F8310000603100002C
:103E000098040000F43100000EE40020F4200000CB
:103E10004C2B00004D2B0000E80400005806000069
:103E20004E2B00000023002200215846E9F77CBCFD
:103E3000FF2202700A707047FF2303700B7013702B
:103E40007047000001E0000000BFFF2202700A700E
:103E5000704701460020896800291EBF09680029B3
:103E600091F82000704780B54268914204D20368FF
:103E70000C204143581801E007F0B2FA8168481E4F
:103E80008041C00F02BD10B5144607F0B9FA0268B0
:103E900021465368BDE81040184780B507F0B0FAD6
:103EA0008068022801D1012002BD002002BD80B53A
:103EB00007F0A6FA00218160416001BD70B504469B
:103EC0000D4600263146204607F09AFA0268294638
:103ED000761C13689847042EF4D370BDC1688869B6
:103EE0000268D369184701804280704710B50446C4
:103EF00020680168CA6A9047012803D120680168D8
:103F0000CA69904760680168CA6A9047012805D16C
:103F100060680168CA69BDE81040104710BD000024
:103F2000083810B50446082104F11400A7F7E2FA96
:103F3000082104F12000A7F7DDFA082104F12C0084
:103F4000A7F7D8FA04F1380300211A783AB1587863
:103F5000002818BF032A02D1114600221A702046F9
:103F6000BDE810402DE9FC41064606F139052878E8
:103F7000002403298DF800006C7008D1002300F0A4
:103F8000CDF80D2400228DF80040AA70C1E02878F9
:103F9000002847D1012902D0022911D026E030465D
:103FA00000F0B1FA042100F0BDF8012808BF032198
:103FB0002DD000220021304600F04CFA012011E003
:103FC0000021304600F09FFA4FF0805100F0AAF82F
:103FD000012808BF04211AD000220121304600F038
:103FE00039FA072001218DF8000010E0DFF8B40550
:103FF000817D01291FBFC27D012A007E012805D0D5
:10400000DFF8A41500F08EF8012804D10221304613
:1040100000F070FA11E0012100F084F801280CD1C1
:1040200068700AE0032400E0641E6946304600F030
:104030007BF8012801D1002CF6D19DF80000002862
:1040400018BF0D2865D03046DFF8604500F06AFAE9
:1040500021784FF064080A2711FB08F1884217D332
:10406000B06A02280AD100200023A87300F056F895
:104070000D2002218DF80000A9700CE001280AD063
:10408000607810FB07F106F12000A7F73FFA02E085
:104090000021B1627162A97B01293AD1687B0128B4
:1040A0000CBF0521DFF8081500F03CF8012804BF1B
:1040B0000020A873304600F035FAA17C11FB08F10E
:1040C000884223D3A87B012820D1706B02280BD112
:1040D00000200021706300223163687BAA730B46C5
:1040E000012818BF012209E0012812D0207D10FB11
:1040F00007F106F12C00A7F709FA0AE00B21304678
:1041000000F056F90F208DF8000002E000217163E5
:1041100031639DF800002870BDE8F38102220A2176
:10412000304645E13046D2E12DE9F8430E46002401
:104130000546307805F14407DFF87894DFF870849D
:10414000401E0E2814D8DFE810F00F001F002E00CC
:104150003700440054005C006B007500BC008D000B
:10416000A800C700DD00EB00284607F053F901283E
:1041700040F00D8101230022002100F012F90446D5
:10418000022030700521B9E000F004F901281CBFBD
:10419000A869002827D100230022012100F001F99D
:1041A00004460320EAE0042100F0F5F8012802D0DB
:1041B000A869002870D1BAE0042100F0ECF80128C9
:1041C0006AD101230022032100F0EBF80446052107
:1041D000C3E0A86938B900230022042100F0E1F807
:1041E00004460620CAE0284600F01BF902460021DA
:1041F0004FE0A86900284FD100F0D5F80D20032129
:10420000C2E0284607F006F9012845D10123012222
:10421000052100F0C6F804460820307006216DE044
:10422000414600F0B8F801281CBFA869002800F03A
:104230008D8029E000F0B1F8012804D199F86D05CE
:10424000C10632D506E099F86D15CA0624D4A869CE
:10425000002821D101230122082100F0A2F8044600
:104260000B208BE099F86D15CA0603D400F095F881
:1042700001281AD0A86938B900230122092100F0C9
:1042800090F804460C2079E0284600F0CAF802466F
:104290000121284600F0DEF879E099F86D05C106A5
:1042A0000BD400F07AF8012807D10023012207215E
:1042B00000F077F804460A2060E0A969002966D179
:1042C00002E0A869002862D100F06DF80D210422F7
:1042D000317085F83B205AE0A869002857D10022A8
:1042E0006863AC6203216A6228462C63FA7000F0AE
:1042F000B1F8347095F83B10002948D0284600F0FA
:10430000F9F844E0A869002841D1B9782346012989
:104310000CBF002201220B2100F043F80F202DE0FA
:10432000B97801290BD100F035F8012807D1002315
:104330000022022100F035F8044604210DE0B8788F
:1043400068B9414600F027F8012808D1002301226E
:10435000062100F026F804460921317017E0A8690B
:10436000A8B938882346401C388080B2032807DA71
:1043700003220C2100F015F804460E20307006E0F0
:1043800000F012F80D200221307085F83B10204615
:10439000BDE8F2830521284699E04FF08051284678
:1043A00095E0284604E0002302220A212846FFE780
:1043B0002DE9F0410546884616461F46404607F05F
:1043C0007BF80446214605F11400A7F79FF82CB3AB
:1043D0004146794807F024F8012FA5F8400002462D
:1043E00012D1E88F904234BF101A801A0004400B9B
:1043F000B0FBF4F1A5F84210B5F8420038B12846F8
:1044000000F00FF8EA8F02E00020A5F84200EA87EA
:104410003146284600F01EF8002000E00120BDE8EB
:10442000F08120B50146C88FB1F8402090420DD0F0
:10443000B1F8425004D2131A9D4206DA281805E05A
:10444000831A9D42B8BF401B00DB1046C88780B26C
:1044500020BD000038B50446084603281146554AD9
:1044600034D8DFE800F00213242B92F86D058207A0
:1044700005D52369186805682A69904704E0206912
:10448000006803685A69904701201DE092F86D2585
:10449000900705D52369186802685569A84704E0A4
:1044A0002069006802681369984702200CE02169BE
:1044B0000868002102689369984704E02169086848
:1044C0000268D3699847002084F8480031BD70B570
:1044D00005460C462969002648680268D368984753
:1044E00030B12869214640680268936898470646BB
:1044F000304670BD10B5026980F83C1090680368C2
:104500009C68A04710BD00F144022A4B9170002125
:10451000118093F8691501B10121D1703E30062157
:10452000CCF716B910B504462169C8680268136B48
:10453000984720B12069C0680168CA68904780B276
:1045400010BD00218161C1614162816201634163EB
:10455000002070470021C161816181624162416335
:10456000016300207047F8B50F46064614460E4911
:104570000125FFF7ACFF012805D0306940680168CC
:10458000CA68904710B90020002507E0012F0CBF32
:1045900004214FF080513046FFF799FF20702846E4
:1045A000F2BD0000AC2A0000020000C01E3E002048
:1045B00001000010C8380020D832000010B5016991
:1045C00090F8484008680268936898474FF6FF7172
:1045D000884208BF0324204610BDF0B590F839602A
:1045E000059C069D0E7081690F043F0E17701970AF
:1045F000C18F090A2170C08F2870F0BD38B50C46F4
:104600000022054622700121FFF761FF012803D136
:10461000227842F001022270022100F02EF80128D7
:1046200003D1207840F002002070042100F025F82A
:10463000012803D1207840F0040020704FF0805111
:1046400000F01BF8012803D1207840F0080020700A
:104650004FF0804100F011F8012803D1207840F09C
:10466000100020704FF0004100F007F8012803D13E
:10467000207840F02000207031BD284627E738B56B
:104680000C461546FFF74EFF010A2170287031BD18
:1046900002680B689A4238BF0846704762B181428F
:1046A0003ABF531898429FF739BF801813F8011D7D
:1046B000521E00F8011DF9D1704770B504680D460F
:1046C0009CB121682046CA6A904723680646204666
:1046D000596B8847044606E0306818B102682968BB
:1046E00013689847361DA642F6D170BD38B50C1A2E
:1046F0001546A4100146A2002846FFF7CFFF05EBA0
:10470000840032BDF8B504461546607914F030FADD
:104710000646207914F07CFA0746207914F075FAE1
:104720000128FAD06079294614F052FA06433E4334
:10473000701E8041C00FF2BD002848BF4042704744
:1047400010B56949002251F82000002300210024FF
:104750008281C381C183028400EB4102491C042988
:1047600093849485F8DB4384604A92F90331DB013A
:10477000038210BD5C495D4B51F82010B1F8700008
:10478000B1F90C2093F802114A43A0EB521000B289
:10479000704710B5544951F82010CC890B8A91F814
:1047A000A400B1F90220E31A1BB2504C90B904F5F1
:1047B000B2700279C2F3801212B9B1F862001DE042
:1047C0000078E0B1B1F9642040B2520192FBF0F000
:1047D000C88114E094F8010148B112FB03F24000D3
:1047E00092FBF0F08A89821800B28A8138B9B1F957
:1047F0000C00984203D0B4BF401C401E8881B1F920
:104800000C0010BD384951F8201039480279C2F324
:10481000801222B98B89B1F86200181A0AE0B1F946
:104820000E2000784243B1F86400111102EBD1620E
:10483000A0EB621000B270472DE9F0412A4A52F80D
:10484000204063895E0803EB967704F13A05B4F9DA
:104850000420B5F91600BF08A3EB8703234FDBB292
:1048600004EB4306920494F8A43012141B0748BFCB
:1048700000231DD497F86831C3F3801343B92B7814
:10488000042B07DA2B7F5B0604D5B38CCB1A0FE021
:10489000237A73B9B6F92430B4F922C0A1EB030E20
:1048A000AEEB0C034FEA630803EB98730CEBA30326
:1048B0006384B184B4F91210B4F9163099420ED061
:1048C0002D7F07F205116B064CBF097849783AB184
:1048D000B4F9220011FB00F191FBF2F000E000209E
:1048E00000B2BDE8F0810000D02E4B00C838002097
:1048F0002C3A00205349002251F82000C282028342
:1049000042828276C276027770472DE9F0414D4AA5
:1049100052F8203003F1A404E07DB3F9122000F036
:104920000300022804D10122D9821A770A4619838A
:104930000220454DD876207D1F8B05F20716A7EB88
:10494000000C96F90170ACEB07070FFA87F84145A8
:1049500002DB0427DF760F461F83DF8A96F90060AB
:104960003844801906B28E4202DB0120D876084610
:10497000D882187F05F59976012804D002281AD02C
:1049800004282FD051E0DD7E042D17D093F8565027
:1049900045F00105A80602D52278170709D51A8B1C
:1049A000D88A821812B202EBD272521083F8565093
:1049B0002DE00022FAE7D87E04280AD193F85600A9
:1049C00004251D77D982198300F0FE0083F8560074
:1049D0001DE0987E08B1401E18E00125D9821D77A0
:1049E000198314E0D87E042811D0987E02271F77FF
:1049F00000281EBF95F86801C0F34000002806D1CA
:104A000093F8565028074CBF307D607D987620780B
:104A1000050714D5D9820A4619836078810707D51E
:104A2000307860B1D98E521A09E001201877EEE78C
:104A3000410704D5707810B1998ADA8E8A1A10B2BB
:104A4000BDE8F081D02E4B00C8380020F0B5A84951
:104A500051F82020A74890F85D01010900EBD163CF
:104A60005B09A0EB4310C4B204B9012002F1740346
:104A700002F1A2041D7829071CD5EE0710D5A9075D
:104A80000CD45E891F89BE4214D06178C6B2B1428F
:104A900038BF491C09D345F002050AE0607009E0FF
:104AA000617821B1AD0705D5491E617002E005F0BE
:104AB000FD051D701D781989AE0702D56778C919E3
:104AC00089B2C0B2AD0791FBF0F600FB161014D509
:104AD000B1F5847F11DA2478C5B2A5420DD0C4B2F5
:104AE000224492F88220844D0D4485F8D027998184
:104AF000197841F00401197006E01C784FF48472B3
:104B00009A8104F0FB041C70C0B2F0BD10B5784966
:104B10004FF4847251F82000002300F174010A81DF
:104B20004A818A8100220A7000F1A2025370137038
:104B3000CB804B800021CCB2491CCAB20444202A4D
:104B400084F88230F7DB10BDF8B50446684821468A
:104B500050F8216006F15707787F06F1A205C106DB
:104B600018D57A78012A15D1624991F86831DA07A7
:104B700003D597F9001001290CD000F0FE0040F099
:104B80000800787703E02046FFF760FF2870787F01
:104B90008107F8D47A7F06F176004FF4847102F031
:104BA000ED027A77C18001810021697081800180E6
:104BB000F1BD2DE9F84303464D4A4E4C52F823808F
:104BC00004F22919002699F80020002A00F08B80B1
:104BD0004A4A4FF4847552F8233004F5AD729B5F56
:104BE0001C0015D45778D4791B043C44A4EB93449F
:104BF000A4B2402C03DA40F207131D1B08E014781E
:104C0000A4EB93439BB2C82BBCBFC3F1C7031D46A3
:104C100008F17407ADB23B78B5F5847F0C4603F01C
:104C2000FE033B7013DA3D81397841F001013970A0
:104C3000D278130902EBD3635B09A2EB43129542CE
:104C400006DA0A0704D541F01001397000E0FC8053
:104C50003978CA0749D5FFF7F9FE88F8A2003989E3
:104C600025480144788991F9D067A8423DD07D81DB
:104C7000F988FC8038783246611A09B203072CD5CE
:104C80007F29C8BF7F2105DC6FF07F039942B4BF45
:104C9000194649B2800648BF0A461ED4002A134668
:104CA00014DD8A4215DB99F90E00040005D08C1A38
:104CB00064B294FBF0F0821852B28A420DD09A424C
:104CC0000BD18A42B4BF521C521E05E0EBD5914273
:104CD000E9DA99F90D00E8E752B298F8A2004044E9
:104CE00080F8822001E0FFF72FFF3046BDE8F28315
:104CF000D02E4B00C8380020A02F0020C82E4B001B
:104D00009B49002251F8200000F1A4010A7090F89C
:104D1000563043F0200380F85630CA700A710A8179
:104D20004A81CA81CA804A708A70704710B590491A
:104D3000002251F8200000F1A4010A700A8190F8C5
:104D4000564044F0200480F85640CA700A714A81E7
:104D500010BD2DE9F04F8649DFF8188251F820B0D8
:104D600098F85C6108F585754FF0FF090BF1A40216
:104D700092F801C00BF14803BCF1010F06D0BCF161
:104D8000020F11D0BCF1040F15D018E0987B2C78DD
:104D900095F808A0010605D5EE781888864238BF38
:104DA0004FF000092E7904E06C7895F809A095F889
:104DB0000290A40106E00024A246A14602E00024DD
:104DC000A24600261178B2F908000F4651B1012918
:104DD0003CD0022940D0042944D0082951D01029C0
:104DE00058D055E098F8331131B15FEA4C7103D5D2
:104DF0001988494528BF082719880629A8BF01270F
:104E0000BCF1010F0DD0BCF1020F06D0BCF1040FB4
:104E10000CD1177095F9071006E0177095F9061078
:104E200002E0177095F90510090200E00021BCF1BD
:104E3000010FD18106D0BCF1020F06BF1770E97ACD
:104E4000002101E01770A97A117436E09BF81B105D
:104E5000042932D1022730E09BF81B1002292CD103
:104E600004272AE01988514527D346B1997BC90701
:104E700023D5B2F90A10B60089B28E421DDA08278E
:104E80001BE01888D070997B002001F0DF01997336
:104E9000102712E0B2F90E502946002948BF4942B6
:104EA00000290ADD117C00290EBF4FF0000C95FB94
:104EB000F1F1A5EB010CA2F80EC0102F18BF002FC6
:104EC00015D0BBF934101B880029C3BF8D1001EB2E
:104ED0005571C91000210818534507D3994524B2CC
:104EE00003B238BF08279C42B8BF0827518117700A
:104EF0001081BDE8F08F70B51D4951F8200000F118
:104F00005604A57800F1A501B0F8AA200B78012D70
:104F10000BD11500247818BF521E082B08BF0023A0
:104F2000250620D5002208231DE02478A60658BFB8
:104F3000082313D54C78AC420DD11E00144607D07F
:104F4000012B1CBF022B042B0BD0082B06D007E033
:104F50001AB9022305E0012300E00423002400E045
:104F6000012322464D70A0F8AA200B7070BD0000EE
:104F7000D02E4B00C83800207249002251F8200082
:104F800000F1BC010A804A808A8020F83E2F82719D
:104F900070470A466B492DE9F04151F820006A49F3
:104FA00001F5937501F5AF7600F1A40400F13E031D
:104FB0002878002837D01F7E2979780700D541B995
:104FC0005FEA877CA87900D518B9002908BF0028B6
:104FD00029D1E07D810626D41888697F00EB410045
:104FE00018800FFA80FE7245B2BF1A8000B2B0EB93
:104FF000410F0BDBF80604D596F80AC0CCF380000D
:1050000008B1A87F987147F010071F76987900289B
:105010001FBF401E9871C0B2002804D0B3F9000031
:10502000B0EB410F03DA197E01F0EF0119766878D1
:10503000B4F91C700028BC465ED0E17DC8075BD483
:1050400058893178884257D31E7E6979700700D518
:1050500039B9B607E87900D518B9002908BF002882
:105060004AD12178080706D5668BB4F90A00A2EB6D
:10507000C00006446683B4F918009042AEBF1046E3
:10508000AE7E80192083B4F91A60B4F9180095F83F
:105090001780301A00EBD070C003001400EBD07002
:1050A000C003B2424FEA204E0DDBBEEBC80F628355
:1050B000BCBF687EA7EB000C0FFA8CF000280BD564
:1050C0004FF0000C08E0A87E361A7745668303DAB5
:1050D000BEEBC80FA8BFF446042903DA608B4FF07B
:1050E000000C2083A4F81CC0287E0FFA8CF2C000AC
:1050F000904203DA844601E04FF0000CA4F81CC093
:10510000B4F91C10187E0029CCBF40F0080000F054
:10511000F7001876E07DC20605D5CC1095F91B0086
:1051200001EB147104E0CA1095F91C0001EB127137
:10513000091111FB00F0197E8A0648BF002000B259
:10514000BDE8F081D02E4B00C83800202DE9FC4787
:105150000546DFF82C8129690A2688680268D36829
:1051600098472B698146D968087BB1F800A048B1FF
:10517000497B404616FB01F601A9019606F030FA7C
:10518000026878E089684FF47A72002973D105F1DA
:1051900048073878002803BFD968C87C00280092E7
:1051A00044D15869C47B7878A04218BF002807D042
:1051B00049794EF66020414305F13800A6F7A6F97B
:1051C0007C70286980690168CA6890472A69400232
:1051D00000EBD070D36893F902104902A1EB600193
:1051E00014B9286C012802D11C7901EB4421DB7829
:1051F0005269908C00224B4343431C1203EBD4535F
:1052000001EB63214E43311206EBD1567612009624
:10521000009901920129ACBF684601A8006869465F
:105220000090404606F0DCF9016800912A69906818
:1052300001680B6B984738B1CA4505DA00980AFB3C
:1052400000F191FBF9F00090296988690268136BFD
:10525000984700281FBF29694A6992F82900002849
:105260000AD13978002901BF2A69D168C87C002891
:1052700002D14FF4FA7200920098BDE8F687000060
:1052800090A04B000838F8B505464FF47A7105F147
:10529000140005F14504C2F737FA2969C868027C91
:1052A0002270286AF8B101684A6B90470646286A5E
:1052B0000168CA6A9047074605F10C0100E03F1DEE
:1052C000B7421CBF38688842F9D1286A0268516B1E
:1052D0008847874207D1286A05F10C020092694687
:1052E00003689D6DA847012060700020F2BD08385A
:1052F000002180F8461000207047001F38B5054691
:1053000005F14404A078F8B12A6905F11400D169C7
:10531000C2F7FFF92A6905F13800D169A6F7EAF862
:105320002078002801BF29694868427B3F2A0BD1B9
:10533000CFF74CFE296909680A78904234BF101AE9
:10534000002008700121217031BD0C3838B50546A8
:1053500005F14504A07870B129690869026893686D
:10536000984740B92869227800680178914208D2AC
:10537000491C017005E028690168087808B1421EDF
:105380000A702869227801680B7893428041C00F27
:10539000E07031BD38B5054605F14504A170C9B1CD
:1053A000296988690268D36898472969C96891F9A9
:1053B0000E209042B8BF887C05DB91F90F20904207
:1053C000B4BF487C087C20702869237801680A787B
:1053D0009A42DBE70020E963286431BD70B50069BB
:1053E0000C46806960B14268056805EB820605E0FD
:1053F00055F8040B214603689A689047B542F7D1E7
:1054000070BD0000DFF8900490F8A0210A7070478A
:105410000878DFF8841481F8A001704738B50C468D
:10542000DFF87454402205F5AE7120469FF774F8FA
:1054300005F5CE7104F140000CE038B5DFF85854A2
:105440000C46402205F5AE709FF766F804F1400166
:1054500005F5CE700B8803804988418031BD10B5B9
:10546000DFF8344443F6B241B4F8BC0388421DD09F
:1054700000F01DF804F5CE70002202600122C27116
:105480000021012300228180817143728172FF21FA
:10549000027204F25110037143718271C171017281
:1054A00041728172027042708270C27010BD30B55C
:1054B000DFF8E8134FF47A72087849786423504390
:1054C00012FB01F2B0FBF3F0B2FBF3F10022DFF8C4
:1054D000C83303EB8205521C102A05F5AE742080F8
:1054E0006180F6D303F5AC70FF21017041708170CB
:1054F000C17030BD2DE9F0410446DFF8A003027809
:1055000040784FF47A716700642364264A4311FBA4
:1055100000F1102FB2FBF3F5B1FBF6F61BD2DFF86A
:105520008083012108EB87007F1C05804680204690
:1055300000F08AF80121204600F0AEF808EB870061
:10554000012105804680204600F0CEF8204601214A
:10555000BDE8F041F0E0BDE8F0814200102A00D340
:10556000704770B500F006F8A2F85C510121BDE863
:10557000704069E0DFF82C334FF47A7193F85C43A4
:10558000DFF8146306EB820264254C43B4FBF5F5A7
:1055900070474200102A00D3704770B500F026F81B
:1055A000FFF7EEFFA2F85E510121BDE8704073E005
:1055B0004200511C102900D3704770B5FFF7DAFF85
:1055C000A2F860510121BDE870408DE04200511CFD
:1055D000102900D3704770B500F008F8FFF7D0FF2E
:1055E000A2F862510121BDE87040A5E0AD4B4FF437
:1055F0007A7193F85D43704738B50C4640006100FE
:10560000102838BF10291DD2A34A02F5AE7302F547
:10561000B07253F8205043F8215052F8203042F82D
:1056200021300021E0B200F00FF80021E0B200F0DC
:1056300033F80021E0B200F057F8E0B20021BDE8F5
:10564000344079E031BD00000728934A92F8583180
:1056500020D8DFE800F004070A0D1013161961F3D3
:10566000000315E061F3410312E061F382030FE0F0
:1056700061F3C3030CE061F3041309E061F3451324
:1056800006E061F3861303E003F07F0343EAC113EE
:1056900082F858317047000007287F4A92F8593144
:1056A00020D8DFE800F004070A0D1013161961F383
:1056B000000315E061F3410312E061F382030FE0A0
:1056C00061F3C3030CE061F3041309E061F34513D4
:1056D00006E061F3861303E003F07F0343EAC1139E
:1056E00082F859317047000007286B4A92F85A3106
:1056F00020D8DFE800F004070A0D1013161961F333
:10570000000315E061F3410312E061F382030FE04F
:1057100061F3C3030CE061F3041309E061F3451383
:1057200006E061F3861303E003F07F0343EAC1134D
:1057300082F85A31704700000728574A92F85B31C7
:1057400020D8DFE800F004070A0D1013161961F3E2
:10575000000315E061F3410312E061F382030FE0FF
:1057600061F3C3030CE061F3041309E061F3451333
:1057700006E061F3861303E003F07F0343EAC113FD
:1057800082F85B3170470000014600200729424A39
:1057900092F8582113D8DFE801F0040507090B0D32
:1057A0000F1129E0500808E0900806E0D00804E056
:1057B000100902E0500900E0900920E0D00970478C
:1057C000014600200729344A92F8592113D8DFE80E
:1057D00001F0040507090B0D0F110DE0500808E05A
:1057E000900806E0D00804E0100902E0500900E04B
:1057F000900904E0D009704702F00100704700F002
:1058000001007047014600200729234A92F85A21D7
:1058100013D8DFE801F0040507090B0D0F11EBE7C2
:10582000500808E0900806E0D00804E0100902E003
:10583000500900E09009E2E7D009704701460020D6
:105840000729154A92F85B2113D8DFE801F0040517
:1058500007090B0D0F11CFE7500808E0900806E08C
:10586000D00804E0100902E0500900E09009C6E702
:10587000D00970470C48027802B101220A7083787F
:105880004B704078887070470A78074802704B78F0
:105890008370897841707047402B0020243C0020A1
:1058A0009C2C0020C8380020E32C002090F8340005
:1058B000704700F12A021178002904BF50780028AF
:1058C00001D1D07800B10120704710B50446E168DD
:1058D00001F12800CFF7FDFA20B9E0683030CFF7AA
:1058E000F8FA00B1012010BD0120704710B500F09A
:1058F00025F8042800D00DE0012010BD10B500F0FF
:105900001DF8032804D000F051F8042800D001E06D
:10591000012010BD33202070002010BD10B500F014
:105920000DF8052808D000F041F8032804D000F055
:105930003DF8042800D0EDE7012010BD044635E015
:1059400010B5FFF7FBFF02280CD000F02FF8052858
:1059500008D000F02BF8032804D000F027F8042822
:1059600000D0D7E7012010BD1CB500F015F80628BF
:1059700004D06846FFF7E4FF00B912E0012016BD2D
:105980001CB500F009F8012804D06846FFF7D8FFDD
:1059900000B906E0012016BD044633208DF8000052
:1059A00004E09DF800002070002016BD80B5694617
:1059B0000DF10100CAF773FBFF2808BF9DF8000036
:1059C00002BD10B1012803D070470846A5F7F0BB0F
:1059D0000846A5F721BC2DE9FC418046084615463E
:1059E000C16942691E46575C0A44016A547880695D
:1059F0000844034601960095424621463846D8F7AA
:105A0000EDFFBDE8F6812DE9FE4380460D46E869CD
:105A1000696916461F460C5C0A18296A92F80190BB
:105A200028468069084402974346019600906A69B7
:105A3000E86949461044821C2046D8F7D7FFBDE8E4
:105A4000FE832DE9FF4780460F4615467869FA69BF
:105A5000396A1E46845C3846891C80690844396A64
:105A600081463846491C80690844396A824600F0FC
:105A700081F80246029601955346CDF800904146C2
:105A80002046CAF7E2FA04B0BDE8F0872DE9FE43EC
:105A90000D460446296A16461F462846891C806919
:105AA0000844296A804600F034F8296A814628466D
:105AB000806908440297024601962146CDF800808D
:105AC0006869EC694B462044CAF7B0FABDE8FE832A
:105AD0002DE9FC4100F037F800F07AF800F029F8E1
