:020000040040BA
:10000000A55AA55A010000000000000000014000B0
:10001000000000000001400000000000000000009F
:10002000000000000000000000000000FFFFFFFFD4
:10003000FFFFFFFFFFFFFFFFFFFFFFFFFFFFFFFFD0
:10004000FFFFFFFFFFFFFFFFFFFFFFFFFFFFFFFFC0
:10005000FFFFFFFFFFFFFFFFFFFFFFFFFFFFFFFFB0
:10006000FFFFFFFFFFFFFFFFFFFFFFFFFFFFFFFFA0
:10007000FFFFFFFFFFFFFFFFFFFFFFFFFFFFFFFF90
:10008000FFFFFFFFFFFFFFFFFFFFFFFFFFFFFFFF80
:10009000FFFFFFFFFFFFFFFFFFFFFFFFFFFFFFFF70
:1000A000FFFFFFFFFFFFFFFFFFFFFFFFFFFFFFFF60
:1000B000FFFFFFFFFFFFFFFFFFFFFFFFFFFFFFFF50
:1000C000FFFFFFFFFFFFFFFFFFFFFFFFFFFFFFFF40
:1000D000FFFFFFFFFFFFFFFFFFFFFFFFFFFFFFFF30
:1000E000FFFFFFFFFFFFFFFFFFFFFFFFFFFFFFFF20
:1000F000FFFFFFFFFFFFFFFFFFFFFFFFFFFFFFFF10
:10010000001000201D054000A1FF4000A1FF40009D
:10011000A1FF4000A1FF4000A1FF4000000000003F
:10012000000000000000000000000000A1FF4000EF
:10013000A1FF400000000000A1FF4000A1FF40001F
:10014000A1FF4000A1FF4000A1FF4000A1FF40002F
:10015000A1FF4000A1FF4000A1FF4000A1FF40001F
:10016000A1FF4000A1FF4000A1FF4000A1FF40000F
:10017000A1FF4000A1FF4000A1FF4000A1FF4000FF
:10050000A1FF4000A1FF400000BF00BF00BF00BF2F
:10051000FAE70000DFF800F00D11002072B60021AC
:10052000002200230024002500260027B846B946F3
:10053000BA46BB46BC464FF0640001380028FCDCDC
:100540004E4801684E4A01EA0201002917D14D4880
:1005500001684B4A41EA020101604B4801680122EF
:1005600041EA020101604948494901604949016085
:1005700042480168424A01EA02010029F8D046488F
:10058000464901604648016800208142FFD0454845
:1005900080F3088800E031E0434844490160444961
:1005A000016044484449016008E044483F49016013
:1005B0003F490160424840490160FFE74148002847
:1005C00009D04149414A521A013A04DD0020002372
:1005D00009C1083AFCDA3B4800280FD03C480068C3
:1005E0004FF00101084209D03A493B4A521A013AF8
:1005F00004DD0020002309C1083AFCDA374800284E
:100600000FD037490868012240EA020008603549E6
:10061000354A521A013A04DD0020002309C1083A84
:10062000FCDA324800280FD031490868012240EA3C
:10063000020008602F49304A521A013A04DD0020B6
:10064000002309C1083AFCDA2C4800682C4988428A
:10065000FAD0134801680020814200D005E00FF075
:100660004FF92848EFF308810160FFF753FF62B6A6
:10067000C046C0460BF0A4F900BFFEE710C32D40F2
:100680000000000130C32D4004C32D4000C02D40A8
:10069000F05A00000FA5000008ED00E000564020D1
:1006A00004002640001000201000274020C5000054
:1006B00028D9000000002740400000FF10C046403D
:1006C00000C04640010000000001402000804020A2
:1006D00000C0284000004020000140200100000030
:1006E00094EF00E000000020000001200100000065
:1006F00090EF00E00000000000800000584E402015
:100700005A5A5A5A005640204131313000000000F8
:100710005453473230323400FFFF00000000000025
:10072000774A02EB4013F0B4002402EB001083F888
:100730002040D1E90267C3E90A670C7C83F838409E
:100740004D7C83F839508C7C83F83A40CD7C83F81B
:100750003B50097D83F83C1020334360F0BC704768
:10076000674A02EB4013F0B4012402EB001083F857
:100770002040D1E90267C3E90A670C7C83F838405E
:100780004D7C83F839508C7C83F83A40CD7C83F8DB
:100790003B50097D83F83C1020334360F0BC704728
:1007A000574A02EB4013F0B4022402EB001083F826
:1007B0002040D1E90267C3E90A670C7C83F838401E
:1007C0004D7C83F839508C7C83F83A40CD7C83F89B
:1007D0003B50097D83F83C1020334360F0BC7047E8
:1007E000474A02EB4013F0B4032402EB001083F8F5
:1007F0002040D1E90267C3E90A670C7C83F83840DE
:100800004D7C83F839508C7C83F83A40CD7C83F85A
:100810003B50097D83F83C1020334360F0BC7047A7
:10082000DFF8DC2038A102EB0010416070470000C7
:10083000DFF8CC203CA102EB0010416070470000C3
:100840002F4901EB0012496E51F820000378022B6A
:1008500003D100BF44A15160704700BF3AA050606F
:1008600070470000DFF8982047A102EB00104160BC
:1008700070470000224901EB0012496E51F8200038
:100880000378022B03D100BF4FA15160704700BF16
:1008900045A0506070470000DFF8642052A102EBD1
:1008A0000010416070470000DFF8542056A102EBB1
:1008B0000010416070477047124A70B50D460446FB
:1008C0002B7852F82360B0472A7820010C490A544B
:1008D0004A6E52F824301D78022D0FD15E789B7835
:1008E00001250E44334483F8605052F824300A182E
:1008F00099785878BDE870400FF0B4BA70BD000028
:10090000F04D4020B814410000000000000000003D
:100910001D00000000000000FF00000000000000BB
:1009200000000000010000000000000000000000C6
:100930002F00000000000000FF0000000000000089
:1009400000000000010000000100000000000000A5
:100950002110000000000000FFFF00000000000068
:100960000000000000000000010000000000000086
:100970002110000000000000FFFF00000000000048
:100980000000000000000000010000000000000066
:1009900005800000000000000000000000000000D2
:1009A0000100010100000000020000000000000042
:1009B000B71DC10400000000FFFFFFFF00000000A2
:1009C0000100010101000000020000000000000021
:1009D000B71DC10400000000FFFFFFFF0000000082
:1009E0000100010101000000020000000000000001
:1009F00013FBACF400000000FFFFFFFF000000004D
:100A000001000101010000000300000000000000DF
:100A10009336EAA9EBE1F042FFFFFFFFFFFFFFFF84
:100A200001000101010000000020DFF85C110870E6
:100A30007047DFF854010178012902D001220270C9
:100A40007047112300220021702000F0C9B900F086
:100A50009CBADFF8343130B51A7881B0012442B93C
:100A6000002302220021702000F0BAF9204601B0D4
:100A700030BD09B90223F4E708B10323F1E7086C9C
:100A80008268022A28BF0824F0D24468DFF8FC30CC
:100A900025780C2D03D253F8320088640BE08A6B62
:100AA00053F832408C64406802780E2A03D1CC6B34
:100AB00053F83400C864DFF8D820DFF8D830106865
:100AC00014794C2212FB04F41A19556CA8470446F9
:100AD000204601B030BDF0B50446DFF8AC60307898
:100AE00081B0012540B9002304220021702000F0CC
:100AF00077F9284601B0F0BD022C28BF0323F3D2BA
:100B0000DFF88850DFF88C6055F8340005EBC40539
:100B10004C242F7914FB07F7F419A66AB047054651
:100B2000284601B0F0BD0146DFF85C2010B5107812
:100B3000012438B9002305220021702000F050F96B
:100B4000204610BD022928BF0323F4D2DFF83C2041
:100B5000DFF8403052F8310002EBC1024C21147929
:100B600011FB04F419190B6C98470446204610BD7C
:100B700000B581B0122313220021702000F030F95B
:100B8000012001B000BD0000CB4D402024024100F7
:100B9000D0014100D801410000B581B012231422D8
:100BA0000021702000F01CF9012001B000BD704749
:100BB000002070472DE9F04304460020012A81B04F
:100BC00040F08C800A0000F08980A41CCD074FF60D
:100BD000FF721ED534F8026C1F88BE421CBF34F869
:100BE000025C954214D126789F78BE421CBF2578BE
:100BF000FF2D0DD16678DD78AE421CBF6778FF2FE0
:100C000006D1A5781E79B5421CBFA778FF2F68D002
:100C1000A41D490800F0628034F8025CADF8005071
:100C20001E88B5421EBF34F8028CADF80080904596
:100C300025D194F800908DF800909F78B9451EBF9B
:100C400094F800E08DF800E0BEF1FF0F17D167784F
:100C50008DF8007093F803E077451EBF65788DF836
:100C60000050FF2D0BD1A5788DF8005093F804E0CB
:100C700075451EBFA5788DF80050FF2D31D0A58891
:100C8000B542ADF800501EBFA588ADF800509542A2
:100C900020D1A5798DF800509F78BD421EBFA5795F
:100CA0008DF80050FF2D15D1E5798DF80050DF78D3
:100CB000BD421EBFE5798DF80050FF2D0AD1257A7F
:100CC0008DF800501F79BD421EBF257A8DF8005067
:100CD000FF2D06D0491E04F10C049DD101B0BDE8E2
:100CE000F083012001B0BDE8F0830000002201285C
:100CF00070B42DD172B66F4883795B1C837184798F
:100D00000A2C04D382718478012C08BF01228379D4
:100D10000D8803EB430464000444A4F880508679F2
:100D20008C7806EB46035B00034483F882408579A8
:100D3000CC7805EB45035B00034483F88340857959
:100D4000097905EB45035B00184480F8841062B60E
:100D5000104670BC7047000010B45649002008705F
:100D60000023487000248B7101F10A028C70C87056
:100D70000871052022F8023C147053709370938020
:100D80009471D37113720C32401EF3D101F14602FB
:100D90005FF0050022F8023C14705370937093804A
:100DA0009471D37113720C32401EF3D101F182029F
:100DB0005FF0050022F8023C14705370937093802A
:100DC0009471D37113720C32401EF3D1012081F85B
:100DD000BC0010BC70470020364981F8BC00704749
:100DE000F0B583B0334CADF800008DF802108DF8EB
:100DF00003208DF8043094F8BC50012D20D12E4EE4
:100E00003768B847E0B922786B460A2104F1080038
:100E1000FFF7D0FEA0B960786946FFF767FFE27878
:100E200005466B460A2104F14400FFF7C3FE002883
:100E300018BF012D04D120790028FCD00021217198
:100E4000002003B0F0BDF0B583B01A4CADF800003F
:100E50008DF802108DF803208DF8043094F8BC5002
:100E6000012D07D1154E3768B84718B96078694623
:100E7000FFF73CFF002003B0F0BDF0B583B00D4C90
:100E8000ADF8000000268DF802108DF803208DF8D3
:100E9000043094F8BC50012D07D1094E3768B8478B
:100EA000064660786946FFF721FF304603B0F0BD83
:100EB000000000003C064020FC024100FC02410012
:100EC000FC02410070B50446DFF800222568DFF817
:100ED00000620221EBB252F82300715562B621463E
:100EE000FFF7B7FD010003D194F834104A0705D588
:100EF000002373554FF0FF35256070BD01217155FA
:100F000070BD0020DFF8CC11087070472DE9F04764
:100F1000DFF8C0010178012907D111230022002147
:100F20006E20BDE8F047FFF75BBFDFF8AC11002291
:100F30004FF0FF3400250A7101F108038A60CA608E
:100F40000A614A618A61CA610A624A628A62CA6245
:100F50000A6381F834208A6401F158020C60DFF8DA
:100F600070410D65B3E8C057A2E8C057B3E8C05759
:100F7000A2E8C05781F85450DFF8601125708D70D9
:100F80000D8001210170BDE8F087704770B5DFF872
:100F9000445101242E78012E07D005237822002108
:100FA0006E20FFF71DFF204670BD0AB90123F5E74B
:100FB000022828BF0423F1D2DFF8244154F820008E
:100FC000FFF789FD0446204670BDDFF8081110B513
:100FD0000B780124012B07D00523672200216E2006
:100FE000FFF7FEFE204610BD022828BF0423F4D2DE
:100FF000DFF8EC1051F82000FFF795FD044620467D
:1010000010BD00002DE9F04F324D01242E7881B043
:10101000012E09D00523642200216E20FFF7E0FE97
:10102000204601B0BDE8F08F08B10423F3E72E4D50
:1010300068680678082E18BF0923ECD1002072B624
:10104000234E02243678022E26D2012E06D12548C0
:101050000024057805EBC50630011DE01E4E3768FB
:1010600017F1010F18D1DFF87CC08CF8000006F1F1
:10107000080C306035641D4D756406F15805306507
:101080003071BCE8904FA5E8904FBCE8904FA5E8C0
:10109000904F002486F85440002C12D10E4F0C9E25
:1010A0000B9D0A9C384480F834108260C360046150
:1010B00045610663FFF706FF0446204601B0BDE820
:1010C000F08F62B6204601B0BDE8F08FF802410013
:1010D000DE4D4020CF4D4020A0054020300640206E
:1010E000E002410034064020D0024100D00141001E
:1010F000F0B50D4681B0696C0446DFF85C6656F8C1
:1011000024000B6898420FD095F83410CB070FD508
:10111000022710F1010F0CD1104600F06FF840B912
:10112000686C016846F824100027384601B0F0BD0D
:101130000127384601B0F0BD70B4002300220B76C1
:10114000806C01E05B1CDBB20024A34223DA51F87F
:101150003350854217D05B1CDBB2A3421BDA51F837
:10116000336086420FD05B1CDBB2A34213DA51F826
:101170003350854207D05B1CDBB2A3420BDA51F837
:1011800033408442DED1081D0E1D10F8335006F89E
:10119000335000230BE041F834000B7E081D00F8AB
:1011A0003340087E0023401C087600E05B1C087E6C
:1011B000DCB284421DD251F83460022E18D25B1C7E
:1011C000DCB2844215D251F83460022E10D25B1C7E
:1011D000DCB284420DD251F83460022E08D25B1C7E
:1011E000DCB2844205D2D8B251F830000228DDD3F7
:1011F0000122104670BC704700000000F0B50546A3
:1012000081B0002600242F4601E0641C0837287EA8
:10121000844216D23979386811B900F071FC01E0C6
:1012200000F083FC06463000EFD054B129792868DD
:1012300011B900F072FC01E000F081FC0835641E79
:10124000F4D1304601B0F0BD30B581B00446207E07
:10125000002580B104EBC50254F83500117919B9A5
:1012600000F05BFC02E000BF00F069FC207E6D1C1A
:10127000EDB28542EEDB01B030BD00002DE9F04754
:101280000E4605460024DFF8D4144C55307901276A
:1012900091469846002818BF012817D196F8343097
:1012A0005FEAC37C12D5DFF8B874DFF8B83407EB17
:1012B000C80C0122314628469CF805A053F83A3064
:1012C00098470746401E8041C00F30713079012891
:1012D00016D196F83410880715D5DFF88474DFF836
:1012E000843407EBC80E0222314628469EF805A03A
:1012F00053F83A3098470746401E8041C00F30717E
:101300003079012814D196F83410480710D5DFF849
:101310005074DFF8503407EBC80C042231462846DD
:101320009CF805E053F83E30984734710746012495
:101330003C43002C0BD05FEA090072B64FF0FF313E
:10134000DFF8142442F82510FFF77EFF62B6002371
:10135000DFF814144B55326C107B78B905EB45005F
:10136000DFF80824DFF808144FF000098000135C50
:10137000304641F823903946FFF769FB3846BDE80F
:10138000F0870020DFF8EC130870704710B4DFF826
:10139000E813C0EBC00201EB4200DFF8E0130023CA
:1013A00044880B5542898B540A445370C0880B54AF
:1013B00010BC704770B5DFF8BC432078C50707D56F
:1013C0000123002200217220BDE87040FFF708BD14
:1013D0000020DFF89463FFF7D9FF0120FFF7D6FF65
:1013E0000220FFF7D3FF0320FFF7D0FF4FF0FF30BD
:1013F000DFF8641308600022DFF87433DFF880033D
:101400001A6002213270017041700120207070BD9D
:101410000246FF232DE9F04FDFF858A301259AF883
:101420000000FF2789B0C40758BF002740F128817A
:101430000C0008BF022700F02381206C4FF0000C45
:10144000E6464168087800211428814601D3042724
:1014500016E194F834005FEA407807D50FF2843C37
:101460000FF2943E1CF809C01EF809E0800717D55A
:101470000FF2483B0FF21C361BF809100FF2283010
:1014800016F809800FF2483610F8090001EA0E0E2E
:1014900016F8091048EA0C0C40EA0E0E01F00101A2
:1014A000BCF1000F5CD05FEACC7012D55FEACE775A
:1014B000A06804D568B9E06858B1022309E011B109
:1014C00038B9022305E008B9022302E0E06800B958
:1014D00005235FEA8C700ED55FEA8E71206904D512
:1014E00048B9606938B1022305E008B9022302E077
:1014F000606900B905235FEA4C7106D5A06908B997
:10150000022302E0E06900B905235FEACC610AD555
:10151000206A616A002818BF002903D0096811B940
:10152000052300E002235FEA8C610AD5A06AE16A24
:10153000002818BF002903D0096811B9052300E06D
:1015400002235FEA4C6004D5206B00280CBF022305
:1015500005701F46022F1CBF052F042F00F090803E
:10156000002A7FF474AF01A92046FFF7E5FD0128AA
:101570003FF46DAF206C844B009003F1010C406888
:10158000027811461CF811E0BEF1FF0F3FF45FAF87
:10159000067913F81190F446360446EA0266027B97
:1015A000407946EA02260643CC45BFF450AF6C4969
:1015B000DFF8D88101EBCC0EDEF80000B0423BD161
:1015C00008F101029EF80500714B12F8302018F85E
:1015D0003010134401E0521C1B1D8A422CD2187893
:1015E00078B1521C8A4227D2587850B1521C8A4294
:1015F00022D2987828B1521C8A421DD2D87800286D
:10160000E9D10099E346087B01281DD172B601AAF1
:1016100021460020FFF76CFD050062B628002DD1A1
:101620000120514908705FFA8BF301AA214600207E
:10163000FFF724FE054621E00CF1010CCC450EF12C
:10164000080EBFF404AFB7E74E480525017972B61E
:10165000474A52F8210000280FD13F4B186810F17B
:10166000010F1EBFD4F844C0DCF80030984204D10A
:1016700042F8214000258AF801B062B6FF2F05D05C
:101680003B46032200217220FFF7AAFB284609B03F
:10169000BDE8F08FF0B50D4636490A78012487B0D1
:1016A000D30708D400230E2200217220FFF798FBF5
:1016B000204607B0F0BD0DB90223F4E7002818BF9B
:1016C0000423F0D172B628490878002835D12D4A74
:1016D0006B6C1179264A52F8210038B1406C1F68B2
:1016E0000668BE4204BF002442F821401A491B6824
:1016F0000A689A4221D1002401238DF81840A86C71
:101700004FF0FF3200908DF804408DF818300A60D9
:101710002C719DF81840002C0ED06E4630790028B0
:10172000306803D100F0F9F902E000BF00F007FAD9
:101730000836641E002CF1D1002462B6200002BFDE
:10174000296C087B0028B3D10C212846FFF77FF9CC
:10175000204607B0F0BD0000E00D4020CE4D4020F7
:101760009C02410098024100DD4D40208C02410066
:10177000E40D4020CC4D402050024100C80B4020D9
:10178000BC4D402088024100A40241009402410067
:10179000562A41000101011111131301010000003B
:1017A0000000000000000000000000000002020035
:1017B0000000000000000000000000000000000029
:1017C0000000000000000000000000000000000019
:1017D0000101010000010100000000000000000004
:1017E000000000001010421010305411430000108F
:1017F00001000010010024000000000000000001B2
:10180000010000000000000000000000DFF800F010
:10181000B1540020DFF800F061530020DFF8E82920
:10182000C0EBC00302EB4300DFF8E0294FEA112CC4
:10183000408902F800C002EB000C8CF801107047E0
:1018400030B4DFF8C419C0EBC00201EB4200DFF88E
:10185000BC190023DFF8B85BC4880B55427B02EB50
:10186000420305EB4303DC78650704D5C0880A5CB6
:1018700042F080020A5430BC7047000070B40A463F
:10188000DFF8083B13F8101003EB400043788B425D
:1018900029D2DFF87449C3EBC30504EB4505C91A27
:1018A000DFF86839AC1D11F0030006D034F80E5B88
:1018B0005E5D1643401E5E55F8D1890813D020881E
:1018C0001D5C15431D54E0891E5C16431E54A08BFD
:1018D0001D5C15431D54608D04F138041E5C1643D5
:1018E000491E1E54EBD1002070BC7047C0EBC003F2
:1018F0000022F0B5DFF8184B5800DFF80C3903F17F
:101900000D06251D375C07EB470C4FEA4C0C15F80C
:101910000CE0BEF1030F14D0C1EBC105261D03EB93
:1019200045010D33185C251D4F7B07EB470C4FEA33
:101930004C0C16F80CE000EB40067600AF5DBE459F
:1019400002D206221046F0BD487B00EB400304EBB8
:1019500043035C79032C07D0C988DFF8B008435CE7
:10196000C3F3C010012800D107221046F0BD2DE9B5
:10197000F04106468846FFF7B9FF050048D1DFF879
:101980008828C8EBC80102EB4100C6EBC60C02EB8D
:101990004C06DFF87C2A437B03EB4307738979000D
:1019A000DFF8687807F1010C545A17F803E01CF8C7
:1019B000033043EA0E23A3420DD0531893F803E0FB
:1019C0005FEA8E7323D57389FA5C1CF8033043EA0F
:1019D00002239C421BD371897A1C8088525C17F8C1
:1019E00001E0B18842EA0E2238443944FFF70EFF85
:1019F0007089791C095C3A5C404641EA0221FFF794
:101A00000DFF4046FFF71CFF2846BDE8F0810A2580
:101A10002846BDE8F0812DE9F04F81B007468A469F
:101A20001C46FFF763FF5FEA000865D1DFF8D8279F
:101A3000C7EBC70002EB4001DFF8D0576F1CCAEBC1
:101A4000CA0E02EB4E0248892B5C385C50EA032038
:101A50005389FF5C15F8039047EA092708BF4FF048
:101A60000D0849D0537BDFF8A8E903EB430C4FEA9C
:101A70004C030EEB030999F803605FEA867B39D5C6
:101A8000DDF82C9000944C44A04221BF4FF0FF366B
:101A90000098361A4E452DD30A9C3EF8033009EBC8
:101AA000040C634522BF4FF0FF30001B484521D393
:101AB000A742B1F804B0968805D2BB19E21B0021F9
:101AC000E818FFF7A7FE0098A6194A46834405EBDD
:101AD0000B01A819FFF79AFE09EB04018F423CBFE6
:101AE0005046FFF79BFE5046FFF7AAFE404601B066
:101AF000BDE8F08F4FF00A08404601B0BDE8F08F16
:101B0000DFF8D0290146535C0120022B04D3FF2BC0
:101B100002D05B1C002053547047DFF8B8190A5CF0
:101B2000032A24BF521E0A547047DFF8A829014631
:101B3000535C0120022B04BF505400207047DFF893
:101B400094190A5C012A04BF02230B547047000059
:101B5000010072B6DFF87C290120535C022B04D30C
:101B6000FF2B02D05B1C0020535462B6704700006C
:101B700072B6DFF860190A5C032A01D3521E0A54B8
:101B800062B67047010072B6DFF848290120535C45
:101B9000022B04BF5054002062B6704772B6DFF8C3
:101BA00034190A5C012A01D102230B5462B6704732
:101BB000F0B4DFF8D857DFF8506605EB4004012396
:101BC00015F810006478C4EBC40706EB470707F16B
:101BD0000C0601E0641C3836844217D23578A942DD
:101BE00012D0641C844211D2B77BB9420CD0641C61
:101BF00084420BD2357FA94206D0641C844205D2B0
:101C000096F82A70B942E5D1002314701846F0BC4A
:101C10007047DFF8C4382DE9F0411D7801245FEAF0
:101C2000C57858BF00234FD5002918BF002A01D01E
:101C3000012801D9042347E0DFF85087DFF89CC86A
:101C400008EB4003002500245F78C7EBC70E0CEBC0
:101C50004E0E0EF10C0C0BE013689D4231D29CF835
:101C60002AE06D1C7F1C0CF1380CC1F80CE010311F
:101C700018F810309F4220D2D2F800E0754520D2EB
:101C80006D1C7F1C9CF800609F420E6015D2D2F83C
:101C900000E0754515D26D1C7F1C9CF80E609F42BC
:101CA0004E600AD2D2F800E075450AD26D1C7F1C46
:101CB0009CF81C609F428E60CED315602046BDE824
:101CC000F081032403231560112200217220FFF705
:101CD00087F82046BDE8F081DFF8FC272DE9F04FBA
:101CE0001378012781B0DC0709D4002310220021DA
:101CF0007220FFF775F8384601B0BDE8F08F044652
:101D0000012C9ABF8846B8F1010F0423EED8404653
:101D1000FFF738FF20B10227384601B0BDE8F08F49
:101D20002046FFF715FF08B102274CE0DFF85C06FC
:101D3000082710F81420411C11F8141091420D4688
:101D40003ED20092DFF8949710F818A009F10C0128
:101D5000C5EBC503401C01EB430610F818B059460B
:101D600009F10C02C1EBC103307802EB430201E040
:101D7000491C383251451ED292F800C0604513D03C
:101D8000491C514517D2937B98420DD0491C5145AF
:101D900011D292F81CC0604506D0491C51450AD2A8
:101DA00092F82A309842E3D14246C9B2E8B2FFF72E
:101DB000DEFD07B1074600986D1C0E368542CED376
:101DC0002046FFF7D5FE4046FFF7E8FE384601B053
:101DD000BDE8F08F2DE9F0411546DFF8FCE69EF8EE
:101DE0000020012704460426984682B00023D0072D
:101DF000ADF800300AD4002633460F2200217220AD
:101E0000FEF7EEFF384602B0BDE8F081022C38BF85
:101E1000022DF1D20DF101022046FFF7C9FE002884
:101E2000EAD16A4641462846FFF7C2FE0028E3D1C0
:101E30002846FFF7A7FE20B10227384602B0BDE8CA
:101E4000F081AC4208D19DF800109DF801002A46AF
:101E5000FFF78DFD074610E02046FFF779FE08B139
:101E600002270AE09DF800109DF801002A46FFF7BE
:101E70007EFD07462046FFF77BFE2846FFF78EFED5
:101E8000384602B0BDE8F0812DE9F0439046DFF816
:101E900048E69EF80020012607461D4683B0002331
:101EA000ADF808304FF00409D0070AD499464B46E4
:101EB000132200217220FEF793FF304603B0BDE8E5
:101EC000F083022F3CBF0B9C022CF0D20DF10902D3
:101ED0003846FFF76DFE0028E9D10C9902AA20468A
:101EE000FFF766FE0028E2D12046FFF74BFE20B147
:101EF0000226304603B0BDE8F083A7420A9E0BD10C
:101F00009DF808109DF80900019643460095224669
:101F1000FFF781FD064613E03846FFF719FE08B1CA
:101F200002260DE09DF808109DF809000196434631
:101F300000952246FFF76FFD06463846FFF718FE6C
:101F40002046FFF72BFE304603B0BDE8F083AE48D5
:101F50002DE9F0411C468846C8EBC803114600EB4A
:101F60004300DFF8AC64DFF878552246477B07EB87
:101F7000470C87884FEA4C0C36F80C60E819FFF7DD
:101F800045FCB44205D2E719321B0021E819FFF7DE
:101F900041FC21464046BDE8F041FFF73FBCF0B5AB
:101FA000994CC1EBC10604EB460481B0974FE5881C
:101FB0007E5DC6F3C015012D19D0647BDFF8505447
:101FC00004EB440605EB46052F88BB4206D095F886
:101FD00003C05FEA8C740DD59F420BD36D79069CCC
:101FE000AC4204D3FFF7B3FF002001B0F0BD0720DF
:101FF00001B0F0BD0A2001B0F0BD2DE9F0438046EC
:102000008946DFF8D404144601780127FF2683B0FF
:102010001D46CA0758BF002649D50CB9022646E01E
:102020000DB9052643E0B8F1020F28BF04263ED2C1
:10203000002140468DF80410FFF7A4FD20B10227CF
:10204000384603B0BDE8F08301AA49464046FFF791
:10205000AFFD08B1042625E09DF8041000902B4642
:1020600022464046FFF79BFF07001BD19DF8041056
:102070006548C1EBC10200EB42016448CA88835C39
:1020800003F0800383544C7BDFF8842304EB440586
:1020900002EB4505EB785A0704D5C988435C43F049
:1020A000800343544046FFF779FDFF2E05D03346A9
:1020B000042200217220FEF793FE384603B0BDE8EB
:1020C000F08330B50446DFF810040178012581B0B3
:1020D000CB0708D40023052200217220FEF780FEE2
:1020E000284601B030BD022C28BF0423F3D220467D
:1020F000FFF748FD18B10225284601B030BD012187
:102100002046FFF7BBFB20460025FFF747FD28468A
:1021100001B030BD00000000032B70B413D8DFE81D
:1021200003F036261502384BC0EBC00503EB45051E
:10213000DFF8AC436B891568E65C23445C7844EABD
:102140000624AC4223D2032070BC70472E4BC0EB58
:10215000C00403EB440416686389DFF88443E55C3C
:1021600023445C7844EA0524B442ECD10FE0264DC8
:10217000C0EBC00305EB4303DFF8644316685B89DB
:10218000E55C23445C7844EA0524A642DBD31E4E7A
:10219000C0EBC00506EB450083880B804189DFF862
:1021A0004003445C401C415C002041EA0421116072
:1021B00070BC704770B51D4682B0144600238DF880
:1021C000043001AAFFF7F4FC10B1082002B070BD82
:1021D0009DF804200C49DFF80803C2EBC20301EBB1
:1021E0004303DE88805DC10758BF092009D59DF8EB
:1021F0001C00069B2A46214600909DF80400FFF72C
:102200008BFF02B070BD000050024100C80B40209F
:1022100030B583B004249DF8185001940095FFF761
:10222000C9FF002818BF092802D0082818BF0A20B3
:1022300003B030BDF0B505460E461446012021001E
:1022400083B01F4600F019804FF0040C0097CDF8C2
:1022500004C03168331D06F108022846FFF7AAFFC3
:10226000002818BF092803D003280CBF0A2001202A
:10227000010002D10C36641EE6D103B0F0BD01EBC3
:1022800041039900425070472DE9F0478A46DFF834
:1022900048120C78FF26012584B05FEAC47858BF45
:1022A000002669D55FEA020801D01C0001D1022690
:1022B00062E0216809B905265EE08146B9F1020FA6
:1022C00028BF042658D200218DF80410FFF740FCE7
:1022D00008B102254BE001AA51464846FFF768FCC9
:1022E00008B1042643E09DF80410DFF8F001DFF8A0
:1022F000F0A1C1EBC10200EB4200C3881AF803C091
:102300005FEACC7158BF082531D5417B404A01EBCB
:10231000410302EB4301087940BB00229DF8040011
:102320000292CF782168032202910DF106010092FA
:1023300002AA7B0803F0010383F00103FFF7ECFE20
:102340000546B80706D502982168884288BF084626
:10235000206001E0029A22604DB9BDF806002268B3
:102360000AEB00014046FFF751FA00E00625484617
:10237000FFF7FEFBFF2E05D0334606220021722018
:10238000FEF72EFD284604B0BDE8F0873402410078
:10239000514B30B51C7881B0E50758BF002308D5F4
:1023A00009B9022305E00AB9052302E0022805D392
:1023B00004230D2200217220FEF712FD012001B03E
:1023C00030BD454900B50A7881B0D30758BF002316
:1023D00002D5022805D30423072200217220FEF72C
:1023E000FFFC012001B000BD10B53B4A1378DC07AB
:1023F00058BF002304D5022838BF022905D304237F
:10240000082200217220FEF7EBFC012010BD000025
:1024100038024100304B30B51C7881B0E50758BF19
:1024200000230BD5002914BF002A022306D011680F
:1024300009B9052302E0022805D30423092200215B
:102440007220FEF7CDFC012001B030BD224B30B52B
:102450001C7881B0E50758BF002308D509B90223CD
:1024600005E00AB9052302E0022805D304230A2265
:1024700000217220FEF7B4FC012001B030BD1649E6
:1024800000B50A7881B0D30758BF002302D50228CF
:1024900005D304230B2200217220FEF7A1FC0120AA
:1024A00001B000BD0C4B30B51C7881B0E50758BFBA
:1024B000002307D50AB9022304E0022838BF022905
:1024C00005D30423122200217220FEF789FC01208B
:1024D00001B030BDBC4D4020CC4D402050024100E9
:1024E000C80B4020DFF800F039650020DFF800F06D
:1024F0003B5C002000B50020824981B081F85C007F
:10250000C046C04672B6804A804882421CBF5020F6
:1025100000F063FB00217E480170FFF7E3FFFFF747
:10252000E5FF00F0BFFDC046C046002001B000BD81
:1025300000B581B000F066FF00F0F8FF01F000F890
:1025400000F070FF002001B000BD00B581B000F0C8
:102550006DFFC046C04601F00BF86A4800F0A7FFC7
:10256000002001B000BD00B581B000F05FFFC046A3
:10257000C04600F0FDFF674800F099FF002001B061
:1025800000BD604800B590F85C0081B000F0B0FF7D
:10259000012001B000BD604830B55A4CC16861628D
:1025A0000269A2620121406961760025E06281B082
:1025B0002576014604F14402002000F0F3FF18B133
:1025C0000620012584F85C00284601B030BD0020BB
:1025D000704700B581B000F06FFF401E8041C043DE
:1025E000C00F01B000BD00207047002045490866BB
:1025F000704700002DE9F041A2B011A84421414DDF
:1026000001F01CF82E6E454C06EB4600002604EB4C
:10261000800090F8008047688468404600F00AFF18
:1026200038B11F20012685F85C00304622B0BDE895
:10263000F08111A9404600F0D1FF38B120200126D9
:1026400085F85C00304622B0BDE8F08184B100BF5F
:1026500097F800806946404600F0C0FF28B17878BE
:10266000A8B169464046C046C046BF1C641EEFD1B3
:102670001D9810F1010F12D12221502085F85C1015
:10268000012600F0AAFA304622B0BDE8F0812320EE
:10269000012685F85C00304622B0BDE8F0811CA917
:1026A000304691E89C5085E89C5022B0BDE8F0810E
:1026B00014490A6E521C012A0A6694BF00200120A8
:1026C00070470020704710B500F0FDFF144C15480E
:1026D0001E212060A1800021204600F0F5FFE08847
:1026E0001D2809D0042120464181C046204600F023
:1026F000F3FFE0881D28F5D12620BDE8104000F04A
:10270000F7BE000064074020E0F04100E0F0410027
:10271000C44D4020A8074020C8F0410000034100FC
:10272000C8074020E0004100DFF800F0918C002055
:10273000DFF800F0DD4E0020DFF800F0B789002060
:10274000DFF800F0B75A0020DFF800F0CB9B002044
:10275000DFF800F0B5580020DFF800F0398B0020DA
:10276000DFF800F0D96E0020DFF800F04F1D0020E8
:10277000DFF800F0019C0020DFF800F07564002015
:10278000DFF800F0ED4F002000B581B0002001F02F
:1027900091F8002001F008F901F02CF90028FBD194
:1027A00001F012F901F01FF901B000205DF804EB0F
:1027B00001F03AB9401E70B582B009D0401E10D069
:1027C000401E10D07E3801280BD9801E34D03EE048
:1027D000FFF7DAFFDFF8600801F088F90020FFF763
:1027E000A3FF02B070BDFF25DFF850482570DFF869
:1027F000500801788A07F4D5DFF84868012132468D
:10280000684601F05CF9002804BF9DF80000A42888
:10281000E7D18DF8005032460121684601F02AF9CF
:10282000DFF824280121601C01F049F90028D8D1E3
:10283000A42002B0207070BDDFF800080178A42940
:10284000CFD141780120FFF773FF02B070BDFEE7E2
:102850002DE9F04380469BB04FF6FF700FA9ADF80D
:10286000200000220023002600270024CCC1CCC178
:102870004CC10325FFF760FF18B9812004258DF8AE
:102880002C0000F087FC06002CD009A9F8B200F05B
:10289000F8FC09989D2818BF9E281FD00DF120092B
:1028A0008DF83C70CDF81C900FA984B068462C229E
:1028B00001F036F90FBC01F029FBF8B201F04DFB35
:1028C00060B1F8B201F049FBBDF82010814205D398
:1028D00083200DF12902ABB26D1CD0547F1CF9B2DC
:1028E000B142D2D3B8F1000F26D0A9B2042920DB1F
:1028F000C91E11F0030008F103020DF12B0306D0ED
:102900005E78401E03F1010302F8016BF8D18908DB
:102910000FD05878491E02F8010B9E7802F8016B1F
:10292000DF7802F8017B187903F1040302F8010B48
:10293000EFD1A8B2FFF704FFADB2032D1BB018BF53
:1029400001242046BDE8F08300207047DFF8FC0634
:10295000DFF8FC262DE9F04301680024FF259BB039
:1029600091421CD001248DF80150DFF8E8260121A6
:102970000DF1010001F07EF800B10124DFF8D80666
:102980000168CA0000F17E80200079D101F015FBBA
:10299000002877D0012420461BB0BDE8F0838DF8D5
:1029A000005001A800F084FB01A90FA800F08CFBE7
:1029B0000FA904A8B1E8CC50A0E8CC50B1E8CC10E5
:1029C000A0E8CC1026E006989D2818BF9E2814D0B9
:1029D000012104A801F033FF78B99DF810009DF89B
:1029E00010300122C0081DF8001003F007039A40C0
:1029F00082F0FF0211400DF800100FA800F072FBEA
:102A00000FA904A8B1E88C51A0E88C51B1E88C5012
:102A1000A0E88C5000F0BAFB0028D4D001A800F048
:102A200047FB012101A800F047FB01A90FA800F016
:102A30004BFB10E09DF810909DF810104FEAD9095B
:102A40001DF8090001F00701C840C2070FA848BFE0
:102A5000042400F047FB0FA904A8B1E88C51A0E8BA
:102A60008C51B1E88C50A0E88C5000F08FFB2043D3
:102A7000E0D020007FF477AFD2208DF8010074E71A
:102A800001F0A5FA20461BB0BDE8F08300B581B087
:102A9000FFF75AFEFEE7000030B581B00024DFF8F2
:102AA000BC5501E0FFF754FE296800291CBF686887
:102AB0000028F7D0284601F0F5FE80B9DFF8A00520
:102AC000DFF8A015D5E90023C0E900230D680168EF
:102AD0000420AA1C03F0BAFB204601B030BD01243B
:102AE000204601B030BDDFF87C250420D0B5136846
:102AF0000124991C03F0CBFBDFF86425D2E90067C1
:102B000031463A4601F01DFF00B900242046D0BDF1
:102B1000DFF848050021016041600020704710B5D2
:102B2000007D012401090A2908BF10F00F0F05D10B
:102B300020B1DFF834050024FFF70EFE204610BD5B
:102B400070B582B00446207D012501090A2908BF1D
:102B500010F00F0F28D138B3A08822680025ADF8F7
:102B60000600217D09090A291ED1E08901AB0DF17A
:102B70000601ADF80400A6680096DFF8EC04FFF744
:102B8000EFFD18B90125284602B070BD207D00096F
:102B90000A2809D1A288BDF80610E389521AA2803A
:102BA000BDF804001B1AA381284602B070BD10B501
:102BB000DFF8B84400202146FFF7D6FD6178207881
:102BC0008842A07007D0012908BF002802D1FFF772
:102BD000CFFDA078607010BD7047FEE700B581B0F2
:102BE000FFF7B2FDFEE770B50446DFF88C14487CB1
:102BF000012580B90B7C2C21DFF8502411FB03F355
:102C0000D0184669266082696260204603F0A0FC05
:102C100030B900216160002020606060284670BDEE
:102C200000256060284670BD2DE9F0410125DFF8E0
:102C30004844A574DFF814746574002697F805807D
:102C400001E0761C2C37F0B2404508D2FFF794FD26
:102C5000F868FE28F5D10021267461740025002053
:102C600060612846BDE8F0812DE9F04F0026FE287E
:102C7000EFB00C46174601BF0126DFF8FC53697C14
:102C8000002940F0C68004A80226FFF7ACFF002808
:102C900040F0BF8004A803F088FD002840F0B98010
:102CA0001FB90598A04240F0B480694604A803F01B
:102CB00079FD074601A904A803F047FC0099814665
:102CC00000291CBF0198002800F0A3808246884696
:102CD00040F28110804580F09C80002100226961D3
:102CE0000121039203AB8DF8241000210A92DFF832
:102CF0008C23089306A8ADF82C100C920D9103F0CC
:102D0000ADFD002840F085800EAA8DF824600A925F
:102D10004FF0000B32E02000ADF82C4028D006E048
:102D2000AAEB0B04402CF6D94024ADF82C4014F04B
:102D300003000EA909EB0B0200F0068012F8013B1C
:102D4000401E01F8013BF9D1A00811D012F8013B57
:102D5000401E01F8013B12F801CB01F801CB12F83B
:102D6000013B01F8013B12F801CB01F801CBEDD199
:102D700006A803F073FD00284BD1A344D345CFD35D
:102D800003208DF8240006A803F068FD002840D138
:102D900018F003000EA905D017F8012B401E01F80A
:102DA000012BF9D15FEA980000F0128017F8012B8F
:102DB000401E01F8012B17F8013B01F8013B17F801
:102DC000012B01F8012B17F8013B01F8013BEDD174
:102DD00004220EAB8DF8242006A80A93ADF82C80AF
:102DE00003F03CFDA8B902A904A803F073FC029B00
:102DF00002460B219F48032600F06EF848B90FF2F7
:102E0000052309229A4904A803F0B0FB08B900265B
:102E1000A87430466FB0BDE8F08F974B0246597CDE
:102E20000120002902BFFE2A9874002070479248B2
:102E300010B5417C012421B9007C00F0EDFE00B901
:102E40000024204610BD70B50025FE2884B031D086
:102E5000894EB07C88B1717C61BB307C00F0DCFEB7
:102E600040BB01220021FE20FFF7FEFE050004D03A
:102E7000012821D10025002628E002A80125FFF71E
:102E8000B2FE28BB694602A803F027FC044601A94C
:102E900002A803F054FC0246009800281CBF0199C8
:102EA000002915D02078002518B90099641C491E06
:102EB00000912CB9002609E0280009D1002605E080
:102EC000009801993460B080B260B1816A4846616F
:102ED000284604B070BD0000F0B404461846002532
:102EE00081423DD20E460023411A35D011F0030035
:102EF00017460BD097F800C007F10107BCF1200F6F
:102F00001CBFBCF1300F0125401EF3D1880823D02F
:102F100097F800C0BCF1200F1CBFBCF1300F012599
:102F200097F801C0BCF1200F1CBFBCF1300F012588
:102F300097F802C0BCF1200F1CBFBCF1300F012577
:102F400097F803C007F10407BCF1200F1CBFBCF1C8
:102F5000300F0125401EDBD100202344114449E0FD
:102F60000B1A06462946F7D013F0030027460BD06C
:102F700097F800C007F10107BCF1200F1CBFBCF19E
:102F8000300F0225401EF3D19808E5D097F800C015
:102F9000BCF1200F1CBFBCF1300F022597F801C017
:102FA000BCF1200F1CBFBCF1300F022597F802C006
:102FB000BCF1200F1CBFBCF1300F022597F803C0F5
:102FC00007F10407BCF1200F1CBFBCF1300F022534
:102FD000401EDBD10020234411440BE0A24206D264
:102FE000022504E00A781C789442F7D20125401C9F
:102FF000491C5B1C2A0001D1B042F3D32846F0BC27
:103000007047000070B504460D460026FFF764FFC8
:10301000012807D0059B049A29462046FFF75CFF4C
:10302000022800D10126304670BD13494A69C261A9
:1030300003F014BC00000000100B4100DF4D4020E5
:10304000E446402007764020087640201C044100DA
:10305000EBA6B67C047640201C1F4020B01A40200E
:10306000B81A4020341F4020C01A4020F9064020E2
:10307000E7484020F8484020CC1E4020EB59002073
:1030800000B581B069460120FFF77AFB10B10F212E
:10309000ADF80010BDF8000001B000BD01460120F0
:1030A000FFF746BBDFF84803DFF8481308617047B5
:1030B0000021417001727047017001214170704719
:1030C000416001210172704770B4DFF828230023AA
:1030D00081B0137391E8700082E87000537301B0FF
:1030E00070BC00BF2DE9F04F8BB00146DFF808330C
:1030F0006846B3E8F050A0E8F050B3E8F010A0E85C
:10310000F010DFF8F03200221E7B1C6918782C25A5
:1031100094F805C0F7B2674526D215FB07F76A4653
:10312000761C274407F1080EBEE8801FA2E8801F26
:10313000BEE8800FA2E8800F5F780122012F08D13E
:103140009DF801C0BCF1010F02D1012801D008E0B7
:1031500038B91F7A012F05D1DDF808C05F68BC457A
:1031600000D000221700D3D06479F0B2A04202D37D
:103170000AB9012058731E736A46B2E8F810A1E834
:10318000F810F8CAF8C10BB0BDE8F08FDFF86402A0
:10319000407B7047DFF85C020169487970472DE990
:1031A000F0479AB004460D4616460C2200216846A8
:1031B000DFF8408203F06CFB002368468DF8013095
:1031C00001278DF80830A8F80C3090E80A4088E80C
:1031D0000A400EA8FFF786FF0EA903A8B1E80C5617
:1031E000A0E80C56B1E80C52A0E80C5202E003A88B
:1031F000FFF778FF98F80D0088B90699012707981E
:103200008C4207D3611A814204D2A84222BF401BDC
:10321000884200273800EAD19DF80C00307038460B
:103220001AB0BDE8F0872DE9E041DFF8C831024669
:103230001B6901205D79AA420ED22C2010FB02F2FC
:10324000981800F10802B2E8C851A1E8C851B2E8E4
:10325000C850A1E8C8500020BDE8E08110B582B098
:10326000144600236A468DF80030FFF798FF0100EE
:1032700004D19DF800002146FFF7D5FF02B010BD34
:10328000000020B45B4B02461B6901205D79AA4215
:1032900006D22C20103310FB02F298580860002050
:1032A00020BC704720B4534B02461B6901205D7956
:1032B000AA4206D22C2010FB02F29818C0680860BF
:1032C000002020BC704720B44A4B02461B690120F5
:1032D0005D79AA4206D22C2010FB02F29818008CCD
:1032E0000880002020BC704720B4424B02461B6976
:1032F00001205D79AA4206D22C2010FB02F2981818
:10330000406A0860002020BC704720B4394B024658
:103310001B6901205D79AA4206D22C2010FB02F223
:103320009818C06A0860002020BC70472DE9F0435F
:1033300099B004460D460C220021684603F0A8FA15
:1033400000232C4F8DF8013068468DF80830012697
:10335000BB8190E80A4087E80A400EA8FFF7C2FE4A
:103360000EA903A8B1E80C53A0E80C53B1E80C5126
:10337000A0E80C5102E000BFFFF7B4FE787B50B923
:10338000049903A8A142F7D1B0E8DC10A5E8DC104D
:10339000DCC8DCC50026304619B0BDE8F083F0B5C6
:1033A0008BB000236A46002600279E46A2E8C8404C
:1033B000A2E8C8400C466946C8C28DF80030012515
:1033C000FFF7B4FF18B99DF80000002520702846CB
:1033D0000BB0F0BD84460120944508D3ACEB020C41
:1033E0009C4504D28B4222BF591A61450020704788
:1033F0001C044100E846402024044100DFF800F0AE
:103400002D66002000B581B0364801680A01FCD461
:1034100003681903F9D4FFF7B7F90120324A107095
:1034200001B000BD0020304908707047002000F056
:1034300011BB0000022830B58DB01ED1012400253B
:10344000FFF7A8FEE9B2814218D2200016D001A9E8
:10345000E8B2FFF7E8FE70B9059904986A46FFF7ED
:10346000CDFF40B99DF80000012804D0022101A839
:1034700001F0E5F904466D1CE2E7002420460DB09A
:1034800030BD30B50C4681B02169E0686A4601253F
:10349000FFF7B4FF40B99DF80000012804D00121D6
:1034A000204601F0DBF90546284601B030BD00B5E5
:1034B00081B040688047FEE710B582B000238DF8E8
:1034C00000300A4A01216846012400F0F8FA002879
:1034D00002BF9DF80000B5280024204602B010BDB0
:1034E0000000000028C03940E24D40200076402016
:1034F000FEE730B4002513E050F8042BD30744BF97
:10350000A9F101039A18091F042942F8045BFAD2B1
:1035100013468C0744BF15809B1CC90748BF1D700C
:1035200050F8041B0029E7D130BC70470348002144
:1035300001224180027003F0B9B900BFC44D4020A0
:10354000114800210160114A42604FF0050C816072
:103550004FF0FF32C0F800C00D4801600123C0F8F1
:103560000021C0F8083170470A48006880B27047EF
:103570000548016849084900016007480268520887
:10358000520002607047000010E000E0BFD401006C
:1035900000000B4004010B4008010B40DFF800F075
:1035A000E966002070B504460846154618222946EB
:1035B0000026FFF7F3FF182818BF022609D1287A42
:1035C000A04218BF042604D12968034A914218BFBB
:1035D0000326304670BD00004A65E9ECF0B58FB0B7
:1035E00004460D466846FFF763FD694603A80726B3
:1035F000FFF76AFD03E0012603A8FFF773FD03A8A8
:10360000B0E88E50A5E88E50B0E88E10A5E88E1078
:103610002C3DFFF7BBFD68B929462046FFF731FF77
:103620000028E8D1696905F12C022046FFF7BAFFAE
:103630000600E1D130460FB0F0BD0000002203F0DB
:1036400047B900002DE9F04F81B00646F0888A4660
:1036500000254FF6FF788DF8002000E020884045D7
:103660002ED0B28890422BD23168002701EBC004E3
:10367000D4F8049001E07F1CBFB26088874217DA5B
:1036800009F1040131F83700504518BF0328F2D181
:1036900009EBC70B51463046DBF800C0E047012874
:1036A000E9D068B9BBF80600308101B0BDE8F08F01
:1036B0009DF80010012903D16D1CA8B20828CDD3B4
:1036C00001B0BDE8F08F704701814FF6FF72002115
:1036D000C280418100E000002DE9F04F89B004462E
:1036E00061890B0006D04FF000080122A4F80A807F
:1036F000FFF7A8FF23894FF6FF78434500F0D480F9
:103700002189E08846460023ADF802100DF1140827
:103710002681A1888246226805E000BF28F817A00C
:103720005B1C32F83AA0B24505D0DFB2082F38BF93
:103730008A45F3D30023BDF802C000270DF1040A27
:1037400005E000BF2AF81EC07F1C32F83CC0B4451B
:1037500007D05FFA87FEBEF1080F38BF8C45F1D362
:103760000027BDF80210884203D100268DF80060C2
:1037700029E05E1E76B2781E02E0761E76B2401E0A
:10378000002E1ED442B238F816103AF81230994280
:1037900017D1761E76B2401E002E12D442B238F8EF
:1037A00016103AF8123099420BD1761E76B2401EAE
:1037B000002E06D442B238F816103AF81230994268
:1037C000DBD08DF800000027002E32D478B24FF6FF
:1037D000FF7238F810009042E08026D0A38898420B
:1037E00023D221684FF0000B01EBC009D9F8045037
:1037F00004E000BF0BF1010B1FFA8BFBB9F80200CC
:10380000834512DA291D31F83B00022818BF03282E
:10381000F0D155F83B200221204690470128E9D0FD
:1038200018B9A81D30F83B1021817F1C7AB296424E
:10383000CCDA9DF900604FF6FF7830002DD470B2DD
:103840003AF810004045E08023D0A388984220D267
:103850002768002507EBC007D7F8049001E06D1C2E
:10386000ADB27888854214DA09F1040131F83500E7
:10387000012818BF0328F2D159F83520012120462C
:1038800090470128EBD020B909F1060030F8351037
:103890002181761E72B2002AD1D5BDF80200E080E7
:1038A000218941457FF42CAF09B0BDE8F08F00209D
:1038B00070470000F0B4504A504B536098680024A1
:1038C00020B310F003015D6900F0078055F8107B0C
:1038D000561CF455641C491EF8D1800800F016806F
:1038E00055F8106B511C571C8C5555F810CB641CA7
:1038F00007F80C4055F8106B641C8C5555F810CB2C
:10390000641C07F80C40641C401EE9D1D8680024F0
:10391000F0B110F003019D6900F0068055F8446B8A
:103920009455641C491EF9D1800811D055F8441BE8
:10393000545455F8446B641C945555F8447B641CEE
:10394000D45555F8441B641C5454641C401EEDD1DE
:103950005868002420B310F003011D6900F00780AF
:1039600055F8207B961CF455641C491EF8D180083C
:1039700000F0168055F8206B911C971C8C5555F85B
:1039800020CB641C07F80C4055F8206B641C8C5548
:1039900055F820CB641C07F80C40641C401EE9D18C
:1039A000D869F0BC02F0ADBF134900B54A6881B0D8
:1039B000095C936901EB011003EB800002F0A3FFA7
:1039C000002001B000BD000000B50B4981B00844E3
:1039D000407872B649684A6902EB001002F0A1FF14
:1039E00062B601B000BD00B581B002F08EFF0020CC
:1039F00001B000BD02F08BBF00484020E010410044
:103A0000DFF800F00965002002460120354B99429D
:103A100009D3C91A702906D2702A04D8C2F17002DB
:103A20008A4228BF0020704700B581B0002002F014
:103A30007BFF002003F0C2F800200BF09FFF03F093
:103A4000A3FA294900208A7801B0012A18BF012071
:103A500000BD000000B581B006E000BFFEF78CFE9F
:103A600003F0E0FA03F0B6FC03F080FB0028F5D188
:103A700001B000BD70B504460D46164631462846D5
:103A8000FFF7C2FF010019D12A4621463046FFF751
:103A9000B7FF002003F02CFB06E000BFFEF76CFE32
:103AA00003F0C0FA03F096FC03F05AFB0128F5D0AE
:103AB0000D4900208A78012A18BF012070BDF0B599
:103AC00004460D46164681B031462846FFF79CFF56
:103AD000070004D12A4631462046FFF791FF3846B9
:103AE00001B0F0BD00764020884B402010B5044660
:103AF00003F098FC0148046010BD0000904A40208B
:103B000062B38B0708D0521E11F8013B00F8013B4D
:103B100000F024808B07F6D1830740F0208000BF9F
:103B2000103A07D330B4B1E83810103AA0E8381092
:103B3000F9D230BC530724BFB1E80810A0E8081040
:103B400044BF51F8043B40F8043BD20724BF31F88E
:103B5000022B20F8022B44BF0B7803707047121F12
:103B600017D35B0009D151F8043B20F8023B1B0C32
:103B7000121F20F8023BF6D20BE051F8043B00F88C
:103B8000013B1B0A20F8023B1B0C121F00F8013BF3
:103B9000F3D238BF121D521E24BF11F8013B00F8AA
:103BA000013BF8D87047000030B5044683B0207858
:103BB00001AB6A460221002500F04DFD010009D449
:103BC000009AE168521A2261DFF8D4261080284654
:103BD00003B030BDDFF8C82601251080284603B0A9
:103BE00030BD30B581B0DFF8BC562A4601216846A9
:103BF000FF24FFF764FF002804BF9DF80000B528EC
:103C000007D100242A468DF8004001216846FFF7BD
:103C100031FF204601B030BD10B58CB0694601249B
:103C2000FFF701FB28B90121684600F008FE00B942
:103C3000002420460CB010BD0FB42DE9F04F8BB01E
:103C400014AB6A460DF1500AB3E8E051A2E8E05126
:103C5000B3E8E050A2E8E050DFF84C960024BAE860
:103C60002F08A9E82F08BAE80F08A9E80F080121D2
:103C7000684600F075FD00B1012420460BB0BDE898
:103C8000F00F5DF814FB0FB4F0B58BB010A96846C7
:103C9000DFF818C6FCC9FCC07CC97CC0DCF8000099
:103CA0005FEA403E02D40199FE2905D0C00003D44A
:103CB00000F08DF9040004D10121684600F08FFD69
:103CC0000446200021D11198602808D1DFF8E025B2
:103CD0000921DFF8E005FFF7CDFEB0B114E0502870
:103CE00008D1DFF8D4250921DFF8C805FFF7C2FEA7
:103CF00058B109E0FE2807D1DFF8C0250921DFF817
:103D0000B405FFF7B7FE00B1012420460BB0F0BCAC
:103D10005DF814FBF0B59BB001A8FFF7C9F901A944
:103D20000FA80024FFF7D0F912E0089907986A4617
:103D3000FFF764FB48B99DF80000012805D0022177
:103D400004A800F07CFD00B901240FA8FFF7CAF910
:103D50000FA904A8B1E8EC10A0E8EC10ECC9ECC085
:103D6000FFF714FA2043E0D0200007D0DFF8500519
:103D7000DFF850250168914208BF002420461BB09F
:103D8000F0BD70B582B004460D46DFF83C653246A2
:103D900001216846FFF793FE401E8041C043C00FDB
:103DA000012C14D1002802BF9DF80000A842002178
:103DB00011D08DF80050324601216846FFF75AFEB7
:103DC000411E8941C943C90F084602B070BDFF2199
:103DD00008B99DF80010084602B070BD00B5014654
:103DE00081B00922DFF8CC04FFF70AFE002001B001
:103DF00000BD0FB4002004B070470FB400B581B00F
:103E0000012060298DF8000008BFDFF8C02408D029
:103E1000502908BFDFF8B82403D0FE2909D1DFF804
:103E2000B42401216846FFF725FE401E8041C043AF
:103E3000C00F01B05DF814FB0FB400B581B00020D5
:103E400060298DF8000008BFDFF8802408D05029D1
:103E500008BFDFF87C2403D0FE290CD1DFF87424DE
:103E600001216846FFF706FE401E8041C043C00F97
:103E700001B05DF814FB012001B05DF814FB0FB434
:103E800030B50C46602C81B008BFDFF84C2403D05D
:103E9000502C0AD1DFF8442402216846FFF70FFEB8
:103EA000451EAD41ED43ED0F03E0FE2C0CBF002598
:103EB00001256946022002F0EAF90146280020D1D6
:103EC0004FF6FF704140491C41406A4689B20220CA
:103ED00002F0BCF9602C07D1DFF8FC230221684610
:103EE000FFF7C8FD00280AE0502C07D1DFF8EC23CB
:103EF00002216846FFF7BEFD002800E0FE2C18BF37
:103F00000125284601B030BC5DF814FB0FB430B574
:103F100081B09DF81030042B08BFDFF8BC2303D01C
:103F2000032B0AD1DFF8B42302216846FFF7C7FD4F
:103F3000451EAD41ED43ED0F00E001250F9C6946A4
:103F4000022002F0A4F980F47F4080F0FF0020807E
:103F5000284601B030BC5DF814FB00B581B069465D
:103F6000FFF7B1F910B10022ADF80020BDF8000054
:103F700001B000BD00B581B00078DFF864230121F5
:103F800080F0FF008DF800006846FFF773FD401ECB
:103F90008041C043C00F01B000BD10B50446DFF83A
:103FA00040230121FFF78BFD002807BF217881F016
:103FB000FF0101200021217010BDBB4881689A29B2
:103FC00012BF9B29022100F0CBBB01207047F0B546
:103FD00099B06846FFF76CF869460EA80024FFF711
:103FE00073F80CE005989A2818BF9B2804D1022189
:103FF00003A800F0F4FB04460EA8FFF773F80EA91F
:1040000003A8B1E8EC10A0E8EC10ECC9ECC0FFF795
:10401000BDF82043E6D0204619B0F0BD10B582B0FF
:104020004B6804466A460420996802F00FF9042C94
:1040300008BFAC4A02D0032C0AD1AB4A042168461F
:10404000FFF718FD401E8041C043C00F02B010BDF5
:10405000022C02B00CBF0020012010BD0428F0B5D6
:1040600081B005460C4608BF9E4A02D0032809D1FC
:104070009D4A04216846FFF722FD461EB641F643DD
:10408000F60F00E0012699492C200A6810FB05F57F
:104090006768501943683B60C168796069460420CD
:1040A00002F0F5F8B86001202060304601B0F0BDA4
:1040B00000B581B08E4A0221FFF7DCFC401E804132
:1040C000C043C00F01B000BD00B581B0884A0221D5
:1040D000FFF7F5FC401E8041C043C00F01B000BD9A
:1040E0000FB410B582B0052269461846FFF756FA9C
:1040F00005281CBFE4B2002C03D16946012002F060
:10410000C6F87C4A04216846FFF7D9FC70B96946B5
:10411000042002F0BCF810F1010F0F9908BF764897
:10412000086002B0002010BC5DF814FB02B0012052
:1041300010BC5DF814FB0FB450B501249F2A83B066
:104140000CD18DF8001030218DF801108DF802107F
:104150008DF8031031218DF8041011E06029184604
:1041600008D10522694620F07F40FFF717FA05289D
:1041700035D105E005226946FFF710FA05282ED152
:10418000119E69460120002402F081F834609DF8F8
:104190000100A0F130010A2920D2000230609DF810
:1041A0000210A1F130020A2A18D20843000230603E
:1041B0009DF80310A1F130020A2A0FD20843000231
:1041C00030609DF80410A1F130020A2A06D208439B
:1041D0003060204603B050BC5DF814FB012420463B
:1041E00003B050BC5DF814FB0FB400B581B06A4653
:1041F0000D980168042002F029F80398602808BF90
:104200003E4A02D050280BD13D4A04216846FFF7B0
:1042100031FC401E8041C043C00F01B05DF814FB6B
:10422000012001B05DF814FB00B581B040680B4679
:10423000602808BF334A02D050280AD1324A0421EC
:104240001846FFF717FC401E8041C043C00F01B065
:1042500000BDFE2801B00CBF0020012000BD10B53C
:1042600082B00446FF220421684602F02DFB6068FC
:10427000602808BF234A02D050280AD1224A0421CC
:104280006846FFF7F7FB401E8041C043C00F02B0F5
:1042900010BDFE2802B00CBF0020012010BD0000A0
:1042A0000A47402000764020F01E40201C1F40207E
:1042B0000B764020E41E4020337640205B76402081
:1042C000A05F4D00444C54420576402022764020A9
:1042D0004A76402072764020147640203C7640207A
:1042E00006764020237640204B764020280E410061
:1042F000097640202B764020313030302776402020
:104300004F7640202F76402057764020DFF800F08F
:1043100093590020DFF800F05D650020DFF800F021
:10432000C1680020DFF800F0756800202DE9F04F2B
:104330004FF0000881B0C146DFF8105482468B462A
:10434000144601E0E41BB944002C52D0FFF7DEFF15
:10435000082C02D90826082718E0DFF8F423DFF834
:10436000F413B2F90030DFF8F003274603EB430CF7
:1043700001EB8C0C9CF808E0CEEBCE0100EB810049
:10438000868A3219521E761E22EA0606291D17F069
:1043900003000AEB090205D012F8013B401E01F8A8
:1043A000013BF9D1B80811D012F8013B401E01F8C9
:1043B000013B12F801CB01F801CB12F8013B01F8E7
:1043C000013B12F801CB01F801CBEDD1082F38BF2A
:1043D000B74204D2281DF11BC01903F0ABF809EB5A
:1043E0000B023146281DFFF799FF0028AAD04FF095
:1043F0000108404601B0BDE8F08F00002DE9F44F00
:104400001C468CB00FF27C430FF2804CDDF83090EC
:1044100004AAD3E900584FF0FF3302AFDCE900E60D
:10442000C2E900580025C7E900E6D9F800A0ADF8B8
:104430000450C74DCDF800A02B80CDB2002D00F068
:104440000381CAB2032A80F2FF8023466A46C9B2BA
:1044500000F01AF90028BE4B188000F1F580012108
:104460000B940991DFF8E8A2DFF8E892BA4F002434
:10447000FFF74CFFBAF9008009F1080307F11602B3
:10448000009908204FF0000C08EB480E00254FEA79
:104490008E0E13F80E60C6EBC60B4FEA8B0B12F8AC
:1044A0000B800A910890CDF81CC015E00A999C4633
:1044B0000A910890CDF81CC00EE0032E38D0089960
:1044C000069A079B891A089106990898CB180793B2
:1044D00070B30828EAD9082006900A9A0798069926
:1044E00082189E48FFF71EFF002818BFE5280ED14E
:1044F00006980226B8B1079804AA9849024406987B
:104500000B7892F800C0634506D1641C07E0502088
:104510000126FEF762FB0BE043450DD16D1C521CDA
:10452000491C401EECD1002D18BF002CC5D003261D
:10453000082D06D1022607E050200326FEF74DFB8A
:10454000F1E7082C08BF0426BAF9008007F116032A
:1045500009F108040B988DF80460DDF800B008EB51
:1045600048070825016800200022BF0014F807C092
:104570008B440021CCEBCC0E4FEA8E0E13F80E606C
:1045800002E0504639464A46A84682460F469146C2
:1045900009E0032C33D0B5EB0805C2442FD0082D19
:1045A000EFD94FF008080AEB0B0241466B48FFF7C2
:1045B000B9FE002818BFE5280ED10224B8F1000F7B
:1045C00017D002A9654851444246037891F800C0CB
:1045D000634506D17F1C08E050200124FEF7FDFA58
:1045E0000DE0B34210D109F10109491C401C521ED3
:1045F000EBD1B9F1000F18BF002FCAD00324B9F1D5
:10460000080F06D1022407E050200324FEF7E5FA44
:10461000EFE7082F08BF04249DF804008DF805403B
:10462000042819BF9DF8041002299DF805000228EE
:104630000AD00B9A0099136801EB43010091099984
:10464000491E09917FF40EAF0C9800990160019802
:104650000DB0BDE8F08F70B58CB00C4615461E4607
:104660006946FEF7E0FD48B933462A4621466846CA
:1046700000F00AF836490CB0088070BD4FF0FF30EA
:10468000334908800CB070BD2DE9F04F81B004466D
:104690008B46E768216915469946DFF8B480CF1943
:1046A0007F1E3846FFF736FE0028A8F8000044D4E5
:1046B000284E00EB400106EB8100DFF89CA0027A57
:1046C000C2EBC2030AEB8303988AA0F1010C20EA33
:1046D0000C0C84451CBF5020FEF77FFAB8F900305F
:1046E00006F108020AF11401584603EB430C4FEAA5
:1046F0008C0C12F80CE0CEEBCE06B600895BCA1D1E
:10470000491E22EA010100220428A8BF022000DA83
:1047100008B14A004243BF1AC9F800107F1C2F603D
:10472000E06887423CBF5020FEF757FA2868FFF741
:10473000F1FDB8F90010884202D05020FEF74DFA82
:10474000B8F9000001B0BDE8F08F0000F447402048
:104750000A474020A40E4100B80F4100F84740200E
:1047600010B58CB00C4600786946FEF75CFD010080
:1047700003D12146684600F003F80CB010BD0000DC
:10478000F0B504460D4685B002AB01AA41A703AEC1
:10479000D7E900CEC6E900CEFFF730FE00909DF8C5
:1047A00000300126022B10D10199082203A8FFF73F
:1047B000BDFD88B902AB01AA29462046FFF71EFEBF
:1047C00000909DF80000042804E0042B04D19DF81B
:1047D0000110022908BF0026304605B0F0BD10B513
:1047E0008CB00C4600786946FEF71DFD010003D130
:1047F0002146684600F002F80CB010BD70B586B0D6
:1048000026A403AB02AAD4E90056C3E9005601ABC3
:10481000FFF7F4FD00909DF80030042B04BF9DF8D5
:104820000100022808D1029901980822411803A822
:10483000FFF77CFD06B070BD002006B070BD10B55E
:104840008CB00C4600786946FEF7EDFC010003D100
:104850002146684600F002F80CB010BD10B582B0D9
:104860006B4601AA0124FFF7C9FD00909DF80030B6
:10487000042B02BF9DF8010002280024204602B04C
:1048800010BD000042524F5345454E44AAAAAAAA61
:10489000AAAAAAAA42524F5345454E44AAAAAAAA76
:1048A000AAAAAAAA2DE9F047054682B029686A4655
:1048B000042004246E46DFF8C49002F06BFE6968A1
:1048C00001AA0420DFF8B8A002F064FE69460420C3
:1048D00002F03FFE80460427042C0AFB089832466B
:1048E00006F1040698BF27464146384602F052FEBC
:1048F000E41BF0D16946042002F02BFE28606946D3
:104900000420042402F025FE80466E460427042C71
:104910000AFB0898324606F1040698BF274641462E
:10492000384602F037FEE41BF0D16946042002F05D
:1049300010FE68600A20134902B008800020BDE81C
:10494000F08703460846E0B50E4D114682B00022BE
:1049500000922E88FF225EB11E466B460A4A02F084
:104960003BFE009F0246B74218BFFF22002028806E
:1049700000211046009102B0E0BD0000311DA02AC8
:10498000EDA3F87F064B402045034119DFF800F006
:1049900015640020DFF800F00B690020DFF800F05C
:1049A000435A0020DFF84C0890F88E15012908BF03
:1049B000FDF7E2BEFFF7AABCDFF8380890F88E15C5
:1049C000012908BFFDF7D8BEFFF7A0BC30B581B004
:1049D00005462C689CB16868A968EA68401A90424C
:1049E0003CBF0120FEF7F9F86968E8686A69091AAE
:1049F00091423CBF0120FEF7F0F8286904442046AC
:104A000001B030BD2DE9F04788469146C845824641
:104A100024D00AEB08160AF10C01B4682701CA5920
:104A2000F568A24204BF0120FEF7D7F80AF10C0195
:104A30000AF10802CD512D0154514FEA09100AF133
:104A40000C030AF10C021958C6F8089042F80080CD
:104A50000AF10800F160090140F801804046BDE814
:104A6000F08730B581B00446E169A568012904BF2B
:104A70000120FEF7B2F8E1692A46204601B0BDE800
:104A80003040BFE7F0B581B00C46217F05461646A1
:104A90000B29A4BF0120FEF7A0F8207F2662EA6957
:104AA000DFF8301D0E5C012A04BF0120FEF795F8E7
:104AB000AA68281DEF691101435CB34280F0198098
:104AC00005F1080E12015EF80220291D10010B5C91
:104AD000B3420ED205F10802125810010B5CB3422A
:104AE00007D205F108021258281D1101435CB34298
:104AF000E6D339462846FFF785FF3801291D0E54B5
:104B00002C50384601B0F0BDF0B4DFF8E8060021C3
:104B100080F88C150C2280F88D15012480F88E15F4
:104B20000123C0F8681200F51D75C0F86412002654
:104B3000C0F85C12FF2180F86012641C2A606C606F
:104B4000641C2B615B1C6C61641C5A1C6C62641CD1
:104B50002A6345F8086C521C05F8046CAE602E738D
:104B60002B62531CAE612E776C63AE6285F82C60AD
:104B700040350C2BE1D903230224C0F8F433012281
:104B8000C0F8F8430423C0F828230124C0F81834DF
:104B90000322C0F8044441F210040123C0F80824A1
:104BA000C0F81834022240F6FF73C0F83043C0F852
:104BB00034430127C0F85C43C0F860430024C0F8C8
:104BC0006843C0F87C4380F87543C0F81424DFF8CC
:104BD000082CC0F83433151DC0F860330223C0F828
:104BE0006443C0F8643300F5B063C0F82C53022569
:104BF000C0F83863C0F85C34022380F8E013C0F8D2
:104C0000385341F21C0580F820140321C0F8E863F2
:104C10001544C0F8E463C0F8DC63C0F8EC6380F8C6
:104C2000F063C0F8FC6380F80064C0F80C6480F89E
:104C30001064C0F83C63C0F84063C0F8506380F86B
:104C4000486380F84963C0F8383400F5D363C0F88E
:104C500034140421C0F858530825C0F8843300F5F3
:104C6000D46380F8546300F54B76C0F8FC630026EB
:104C700080F8AC6380F8804300F55674C0F80C44AB
:104C80000324C0F848440224C0F854440824C0F85F
:104C90008843C0F88C43022480F8AC430824C0F851
:104CA0003C64C0F85814072180F8A01300F5617126
:104CB00080F85473C0F86C6380F8746380F8807374
:104CC000C0F86054C0F86454C0F86864C0F86C64FC
:104CD000C0F87064C0F8806480F8846480F87874E8
:104CE00080F87964C0F8F464C0F82864C0F82464DB
:104CF000C0F81C64C0F82C6480F83064C0F84474B8
:104D000080F84064C0F84C6480F85064C0F858746F
:104D1000C0F89063C0F89463C0F89863C0F8A863C3
:104D200080F8A163C0F83C14C0F8B033C0F8B443B5
:104D3000C0F8B843C0F8BC63C0F8C063C0F8C4632F
:104D4000C0F8D463072180F8D86380F8CC1300F54D
:104D50006C71C0F84C144FF480710224C0F88C14AC
:104D6000C0F89014092180F8D84300F5B3630824F3
:104D700080F8D01480F8CD63DFF8941CC0F8883434
:104D800042F22C05C0F89464C0F89864C0F89C64A2
:104D9000C0F8AC6480F8B06480F8A44441F2140414
:104DA00080F8A5641319C0F8B464C0F8B864C0F8FA
:104DB000BC64C0F8C064C0F8C464C0F8C864C0F87B
:104DC000D86480F8DC6480F8D1641160196059609F
:104DD00002235151C163C0F85011C0F87C15C0F8CE
:104DE0008815C0F85411C0F858124121C0F8901528
:104DF000C0F83C33901DF0BC70472DE9F0410546EA
:104E00000C462000DFF8606BB6F900704FF0000828
:104E100018BF401E45192846FFF77CFA002815D414
:104E2000DFF8A02B00EB400302EB8300DFF8681CE7
:104E300090F808C0CCEBCC0E01EB8E0EBEF814003F
:104E4000401E454004B96D1C00EA05083780404605
:104E5000BDE8F0812DE9F04F83B004468946002576
:104E6000FFF758FA0746002FDFF8FC6ADFF8A4AB1B
:104E700037800AD5CAF80C402320DFF8201C3125E2
:104E80000880284603B0BDE8F08FDFF88C2BDFF8F0
:104E90008C1B1378DFF82C8B0091019318E000BF76
:104EA000A9EB0009FFF772FD002852D121465846B0
:104EB000FFF770FD04460020C046002849D1002CB1
:104EC0004BD13780305F00EB4001890058F801403A
:104ED000B9F1000FD5D0C74890F88E15012903D13C
:104EE000FDF74AFC02E000BFFFF710FAC14991F854
:104EF0008E0538B900990A68D0055CBF0120FFF71C
:104F00004DFD00BFCAF80C40705F00EB400208EB9B
:104F10008202D2F804B0ABEB040B0BF1010BCB45D2
:104F200014D2471C01983FB2874207DA07EB4701CA
:104F3000890058F80100001B8145B1D22322DFF817
:104F40005C0B0280312003B0BDE8F08FCB46A94650
:104F5000A8E7222003B0BDE8F08FDFF8440B102152
:104F60000480DFF8382B1180722003B0BDE8F08F89
:104F70002DE9F24F0024064691460D68A246DFF85F
:104F800074822EE0DFF83C1A00EB400201EB820055
:104F9000DFF8043B90F808C0CCEBCC0E03EB8E0E90
:104FA000BEF81410491E0E4249D14768BF1B7F1C32
:104FB000AF424CD20020C04600285FD1324639466D
:104FC00009EB0A00FFF7AAF983460020C046002833
:104FD00054D1BBF1000F49D1BE19AF4252D2BA44ED
:104FE000ED1B002D55D098F88C05052851D198F867
:104FF0008E15012902D1FDF7BFFB01E0FFF786F90D
:1050000098F88E0540B9DFF8141A0A68D0055CBF1D
:105010000120FFF7C3FC00BFDFF8F8193046CE606F
:10502000FFF778F90028DFF840291080AAD523205F
:10503000DFF8681A0880712001B0BDE8F08F1122F6
:10504000DFF8583A1A80722001B0BDE8F08F294687
:105050003046FFF7D2FE040006D005EB0A00B52269
:105060002146484402F0CAFA6719A3E7DFF8301A6C
:105070001122A1F800B0DFF8240A0280722001B0EA
:10508000BDE8F08F3C1BAC421CBF0120FDF7A5FD25
:105090000025009801684D1B0560002001B0BDE8A7
:1050A000F08FF0B50027DFF8C0480E1881B0E55F3B
:1050B000701EFFF72FF9002811D4DFF8082900EB44
:1050C000400302EB8300DFF8BC1A077AC7EBC70C7A
:1050D00001EB8C0CBCF81410491E01EA0607258070
:1050E000384601B0F0BD70B51C4606463368002551
:1050F00000206BB17068DFF8283B027370680A68A3
:1051000002614968818283613268904700B122253B
:1051100014B1217808432070284670BD2DE9F04372
:10512000DFF87C4681B02269002A18BF002923D00D
:10513000DFF8F05A4FF00509B0E8C851A5E8C851AA
:10514000B0E8C850A5E8C8502C3D2C3885F81C9014
:105150006961026A294604F51770FFF793FC95F818
:105160002830012B08D1D4F8E80304EB0011D1F862
:10517000DC03426A521C426201B0BDE8F08370B5A4
:10518000DFF81C560C462A6A064600217AB395F8C9
:105190008D0560BBD5F8281441B1D5F8242405F25B
:1051A0001C4012018158086AB0421AD0D5F8382440
:1051B000012A04BF0120FDF710FDD5F8382405F2BF
:1051C0001C410020120189583246086188604860FD
:1051D00005F517708C61FFF755FC05F21C40FFF7D1
:1051E00040FCD5F8241405F21C400901415808463A
:1051F00070BD0000AC1F40202DE9F04F0746DFF8DE
:10520000A09599F88E0587B0012802D1FDF7B4FA70
:1052100001E0FFF77BF899F88C05012809DD99F882
:105220008E25012A01D1052803D1052089F88C0596
:1052300002E0052840F08582D9F8680209F5177167
:1052400002904FF00008020199F88E058D58012850
:1052500002D1FDF791FA01E0FFF758F82846FFF771
:10526000B5FB95F81CA006466C69BAF10B0FA4BFFC
:105270000120FDF7B2FCDFF8AC1B51F83A00002822
:105280001EBF091D11F83A20BA4202D0A04298BFB1
:105290000446297FDFF8907B0A2900F20182DFE8CB
:1052A00011F06B006B0011016B001101E901CD01E0
:1052B000B201A0018A010B00AE69286901940024A3
:1052C000DFF8A47686193046FFF724F8010028D5C8
:1052D0003880701EFFF71EF8DFF83C27401C13785B
:1052E00001B2994215DA002913DD01EB4102DFF822
:1052F000D4469100625896423EBF941B019B9C424B
:1053000003D21E1B019616460BE0019CCDF80480CB
:1053100007E02321DFF8843719804FF0710E89F8F8
:105320008DE5388099F88D05002840F0BC81019901
:10533000B1F5807FDFF8F41A84BF4FF480700190DC
:10534000B7F9002002EB4200800008580199801B49
:10535000401C884288BF08460028019000F0A381C5
:10536000052309F5AC7201A93046FFF701FE01994A
:1053700089F88D050C1996E17A6901290592B869B9
:10538000049006BF4FF0010B2861C34699F88E05C3
:10539000012802D1FDF7F0F901E0FEF7B7FF009414
:1053A0002846FFF713FB0646387CC24630B329690E
:1053B000B86981423CBF0120FDF70FFCBA69296939
:1053C0002868891A461809F5B0613046FEF718FBBF
:1053D000009AB8698218BBF1010F00921EBF1146F6
:1053E000F86981420AD07869FFF75BFE824600982F
:1053F000504538BFC246A0EB0A010091009A0099BF
:105400000392F8695144884225D25022DFF8B83B14
:105410001A804FF0710B89F88DB52CB1287F18B91F
:1054200021462846FFF77AFE0498BE690019861BBC
:1054300000F039810599F86AFFF7A1FE002800F015
:10544000328141698268711841614168B218826095
:105450007618466027E1397C786921B93146C34620
:10546000FEF7CEFA07E0042332466946FFF780FDD7
:1054700000288346CFD1F869009988423CBF0120BB
:10548000FDF7ABFB7869009908187861FA69009814
:10549000121AFA610399009A914209D10099C7F84A
:1054A00018A0524609F5B0603144FEF7A9FAB2E7F8
:1054B00022B1BC69C7F81880141BACE7002489F836
:1054C0008DB5B1E7B869C9F86465C9F8F0044FF65D
:1054D000FF70844288BF0446A9F8684509F59C60BE
:1054E000FFF774FAD9F8F414A9F870850844C9F8DC
:1054F0006C0509F26450FDF723FB002859D1B9F877
:105500007005B9F8681508430FD1287F042850D1D9
:1055100009F264500020C04628B12220022189F8F7
:105520008D056977BFE002226A7799F88D0500281A
:1055300040F0B980B9F87005B9F8684568B309F565
:105540009C60FFF743FAD9F8F424D9F86C1510449D
:1055500081421CBF0220FDF740FBB9F87005B0F591
:10556000807F84BF0220FDF738FBB9F87015D9F8A9
:10557000F404D9F8E4244118D9F8EC04C9F8F41477
:10558000121A8A423CBF0120FDF727FB2A6A09F55F
:105590009C6109F51770FFF775FA287F022840F023
:1055A0008280002C00F07F8021462846FFF7B6FD60
:1055B00079E0722175E0D9F82000002873D0D9F87D
:1055C000242003211173D9F82400DFF85416066152
:1055D00084828161D9F820209047002863D072210D
:1055E0005FE0D9F8200000285DD0D9F824200221FE
:1055F0001173D9F82400DFF82816066184828161CE
:10560000D9F8202046E0002C85F81D804BD0A869F1
:105610002B69D9F88814D9F8306022461818B04799
:10562000A04239D1C9F8988409F59161C9F89C4420
:105630002A6A09F51770FFF725FA34E0D9F8200037
:1056400088B1D9F8242002211173D9F82400DFF899
:10565000D015066184828161D9F82020904710B16D
:10566000722089F88D05072129776A69141B6C61FE
:10567000002418E0D9F81000A8B1D9F814200221AC
:105680001173D9F81400DFF89815066184828161DE
:10569000D9F81020904730B1722089F88D0502E0CA
:1056A000222189F88D1528692018286169690C1B49
:1056B0006C6199F88D0598BB474A41F21403134475
:1056C00011681E68D3F804C042F22C03DFF84003CF
:1056D000D258414046403143D9F83C6080EA0C0C36
:1056E0004CEA0101D9F850C142401143D9F87C2558
:1056F0004640D9F88835314380EA0C0CD9F854611A
:105700004CEA0101424011434340D9F85822194361
:10571000464031435040084316D0222089F88D0579
:10572000012109F5777889F88C15B8F1000F1CBFB5
:10573000D8F80C10002904D0D8F818204046FFF7FC
:1057400061F907B0BDE8F08F687F022803D0002818
:1057500008BF002CF5D1D9F87422029909F5177009
:10576000FFF750F9D9F8680208B989F88C8595F8DF
:105770002800012804D0022808BF09F21C48D4E7F9
:10578000D9F8E82309F5777112018958486A401E53
:1057900018BF4862D5D109F577784862C5E700009F
:1057A000AC1F402030B581B00446DFF8905A02E0CB
:1057B0000120FFF721FD95F88C15022907DBD5F8AC
:1057C000680205EB001292F86012A142F0D201B01B
:1057D00030BD0000208C002088264020DFF85C0AC5
:1057E000002210B500F140010424C0F8E0144FF489
:1057F0008771032380F82845C0F8E4140A24C0F810
:10580000E8144FF48071C0F8EC24C0F8F024C0F81C
:10581000F424C0F8042580F8082580F8FC3400231F
:1058200080F8FD24C0F81025C0F81425C0F81C2508
:10583000C0F8202580F83425DFF8042AC0F8E814E1
:10584000C0F80C35C0F81835C0F8303580F8293567
:10585000A0F87215C0F87425B522C0F83835C0F824
:105860003C15C0F84015C0F84435C0F84835C0F8BC
:105870004C35C0F85C3580F8603580F8544580F8C8
:10588000553500F5AC7001F01FF8BDE81040FFF78A
:105890003BB9F0B5DFF8A45981B0D5F8F813012968
:1058A00004BF0120FDF799F9D5F8F82305F57771C4
:1058B00012018E58F1683161346894B17268B06831
:1058C000121A8A423CBF0120FDF787F97168F0681F
:1058D0007269091A91423CBF0120FDF77EF93069D7
:1058E00004440222214605F29450FEF789F8FFF79E
:1058F0000BF90646D5F8F803012808BFFDF76DF946
:10590000D5F8F81305F5777009014758F96839613A
:105910003C6894B17A68B868121A8A423CBF012088
:10592000FDF75BF97968F8687A69091A91423CBF1A
:105930000120FDF752F938690444022205F294511E
:105940002046FEF75DF8304601B0F0BDDFF8EC0808
:10595000002180F88C1580F88D1580F88E15C0F820
:1059600090157047000000000A47402030B5DFF86E
:10597000CC4881B0D4F8F813012904BF0120FDF709
:105980002CF9D4F8F81304EB0112D2F8DC53E968CF
:1059900029612C6894B16A68A868121A8A423CBFCF
:1059A0000120FDF71AF96968E8686A69091A9142E5
:1059B0003CBF0120FDF711F928690444204601B0DD
:1059C00030BD0000A40E410030B50546DFF86C483C
:1059D00094F88E0581B0012802D1FCF7CDFE01E0DC
:1059E000FEF794FC94F8900541060AD5696828688A
:1059F000FFF730FA010004BF4121C4F8901501B04F
:105A000030BD002001B0C4F89005242030BD000056
:105A100064726942701F4020592A41001C1F4020B7
:105A20002DE9F0410646DFF8145895F88E0500245C
:105A3000012802D1FCF7A0FE01E0FEF767FCD5F8D3
:105A40009015CA0717D5306949084900D0B1B6E8A2
:105A50008F51A5E88F51B6E88F50A5E88F50CCF84C
:105A60000040DFF8E0373C3D1C6302212046C5F8CA
:105A70009015BDE8F08100212424C5F8901520463A
:105A8000BDE8F081306A0028E1D12224C5F89015E4
:105A90002046BDE8F0810000B80F4100BE4D402017
:105AA000C24D40202DE9F041DFF89057002495F8D1
:105AB0008E05012802D1FCF75FFE01E0FEF726FC0F
:105AC000D5F89005C10644D520F01000DFF85863E2
:105AD000C5F89005307C50B36B6BF16A01EB410265
:105AE000596890000F1D3F580844D0F8088041467F
:105AF0003846FFF782F9804468682968C01B081897
:105B0000B0EB0800C5F84C0511D04744C5F848452E
:105B1000C5F85075F26A05F5A76105F51770FEF72F
:105B2000B1FF052085F88C050420FFF73BFE2869AE
:105B3000A8B16A690321DFF89434117368690461BC
:105B4000848283612969884748B172242046BDE870
:105B5000F081C5F8904524242046BDE8F081286AEC
:105B600048B1F26A05F2B44105F51770FEF78AFFF5
:105B7000052085F88C0520212046C5F89015BDE844
:105B8000F0810000B80F41002DE9F0410C46DFF82C
:105B9000AC8698F88E15002782B0054616468DF81B
:105BA0000070012902D1FCF7E7FD01E0FEF7AEFB32
:105BB00098F89005810618D50020FFF7F3FD98F8B6
:105BC0008C05012815D198F88D75380005D1D8F8C5
:105BD000900540F04100C8F8900514B19DF8000010
:105BE0002070384602B0BDE8F081C8F890752427CF
:105BF000F3E76B460422294608F11000FFF773FA19
:105C000010B110277007E8D56B46042205F110018A
:105C100008F12000FFF767FA0028D6D01027DCE74C
:105C2000B9494000B84640202DE9F04300257E4E9A
:105C300086F82850DFF8047697F88E1583B08046F2
:105C4000012902D1FCF798FD01E0FEF75FFBD7F8D0
:105C50009005810710D520F00200BA6BC7F89005B7
:105C6000786B016891420ED322237148038031255D
:105C7000284603B0BDE8F083C7F890552425284690
:105C800003B0BDE8F083316B09BB386A002458B11A
:105C90007A6A0121CD4B1173786A04618482836131
:105CA000396A884700B12224386950B17A690121E4
:105CB000C64B1173786905618582836139698847AC
:105CC00000B924B12225284603B0BDE8F08398F836
:105CD000110010B3D8F808106A46042000F0B6FA94
:105CE000D8F80C1001AA042000F0B0FA386988B185
:105CF0007A690221B54B117378690822C0F810D077
:105D0000828283613969884720B17225284603B0B1
:105D1000BDE8F08398F81100D8B9D8F80010306BBE
:105D2000FFF72DFA040014D0082106206161A1605C
:105D3000616001212077042061772268D8F808107B
:105D400000F084FA2068D8F80C10021D042000F03E
:105D50007DFA98F8110070B1022186F8281087F8B2
:105D6000780507F26450FCF7DAFE20B131252846A9
:105D700003B0BDE8F08398F8101000293AD0306BDA
:105D800010B93C68A9460AE0F06A7A6B00EB400162
:105D9000880051680B1D08311C5851F80090494685
:105DA0002046FFF72AF88144D8F80000A0423CBF03
:105DB0000120FCF712FFD8F80010091B49453CBF31
:105DC0000120FCF70AFFD8F80000001BB0EB090027
:105DD000C7F84C050ED04C44C7F84855C7F8504595
:105DE000326B07F5A76107F51770FEF74BFE05202C
:105DF00087F88C0598E81F0086E81F00D8F8000097
:105E0000B5617061D8F804103062306BF06203B095
:105E1000F161401C716230630420C7F89005284688
:105E2000BDE8F0832C8C002054264020A80E4100B1
:105E3000BE4D40202DE9F0410746DFF8008498F878
:105E40008E050025012802D1FCF796FC01E0FEF743
:105E50005DFAD8F89005010755D520F00C00C8F878
